:020000040802F0
:1000000000D00020DD1502083975020855470208A6
:100010005D6802080D260208B11D030800000000FB
:1000200000000000000000000000000025B60208EB
:10003000E93C02080000000019A00208D9E2020809
:10004000C5160208C5160208C516020835AE020814
:10005000C516020879A302082D3D0208813D020859
:10006000C5160208B53D0208C5160208C5160208E5
:10007000C5160208C5160208C5160208C5160208EC
:10008000C5160208C5160208C5160208C5160208DC
:10009000C5160208C5160208C5160208313E020838
:1000A000C516020871FE0208C5160208C516020828
:1000B000C5160208A9FE0208E5FE0208C5160208D8
:1000C000C5160208C5160208C5160208C51602089C
:1000D000C516020829030308C5160208850303088C
:1000E000513D020831A40208C5160208C5160208CF
:1000F00021FF0208C5160208C5160208C516020827
:10010000C5160208C5160208C5160208C51602085B
:10011000AD020308F1020308C5160208C51602085D
:10012000C5160208C5160208C5160208C51602083B
:10013000C5160208C5160208C5160208C51602082B
:10014000C5160208C5160208C5160208B1760208CF
:10015000C5160208C5160208C5160208C51602080B
:10016000C5160208C5160208C5160208C5160208FB
:10017000C5160208C5160208C5160208C5160208EB
:10018000C5160208C5160208DFF80CD001F0F2FA15
:10019000004800479D28030800D0002040BA70475F
:1001A000C0BA704762B672B690FAA0F07047401EAF
:1001B000FDD1704701202D490870704710B501210D
:1001C0002B4804F067FA10BD10B50121284804F04F
:1001D0005FFA10BD10B54021264804F05BFA10BD4F
:1001E00010B54021234804F053FA10BD1CB501217D
:1001F000042009F0CDFF012000908DF804000020BC
:100200008DF806008DF805006946194804F0CCF910
:10021000FFF7D4FF1CBD1CB50121802009F0B8FFF9
:100220004020009001208DF8040000208DF8060089
:100230008DF8050069460F4804F0B6F9FFF7CAFFCC
:100240001CBD10B5FFF7B6FF0BF0BAFA0A480B4910
:10025000086010BD10B504460448007808B9FF20B6
:1002600010BD20460BF00EFBFAE70000B1BE186887
:1002700000080240001C0240283C1A68C0BE1868F2
:1002800010B504460D22FC49204600F0E1FD10BDEA
:1002900010B507F095FFF948F9490860F94800786A
:1002A00018B10321402009F0A1FC08F063FA0128ED
:1002B00005D008F05FFA012801D0012010BD002010
:1002C000FCE770B506460D4607F0FEFC0446112C0F
:1002D00009D0122C07D0132C05D0142C03D0152CC8
:1002E00001D0012070BD284607F004FD012801D18E
:1002F0000020F7E70120F5E730B59BB004460D4636
:1003000001A902A808F038FB012802D100201BB087
:1003100030BD0120FBE770B59EB006460C46154681
:1003200001A905A808F028FB012822D102A807F09E
:10033000E1FC01281BD19DF809002178884214D1E5
:100340009DF80A00617888420FD19DF80B00A178D2
:1003500088420AD19DF80C00E178884205D107F067
:10036000ADFC287000201EB070BD0320FBE702200A
:10037000F9E70120F7E72DE9F04391B005468846FB
:1003800091461E46189FC0A00188ADF824108078C1
:100390008DF8260000208DF8270006208DF8280013
:1003A0003868CDF82900B888ADF82D006B4601AA51
:1003B0000B2109A807F09EF9012833D1B3A00168E9
:1003C000099100798DF8280001208DF8290000207E
:1003D0008DF82A008DF82B608DF82C508DF82D00AB
:1003E000A848007808B108F0D7F96B4601AA0A219D
:1003F00009A807F07FF90446012C0FD1BDF80000D1
:10040000801E01A9085C902808D1BDF80000401E9C
:10041000085C18B9002011B0BDE8F083012C01D1AF
:100420000220F8E70120F6E770B504460D46D11E1C
:10043000CE1701EB9676C6F38700602C11D100EB46
:10044000800101EBC001934E31441E6841F8016FF9
:100450009E888E8000EB800101EBC0018D4E7254AE
:1004600010E000EB800101EBC0018A4E31441E68B0
:1004700041F8076F9E888E8000EB800101EBC00180
:10048000844E725470BD2DE9F84304460F469046E1
:100490001D46E81EC11700EB9171C1F38706602C61
:1004A0000FD106EB860000EBC6007A490844401CD9
:1004B0002B460022114600902046FFF75CFFBDE866
:1004C000F88306EB860000EBC60072490844C01DA5
:1004D0002B460022114600902046FFF74CFFEEE726
:1004E00070B592B004460D466BA00188ADF8281097
:1004F00080788DF82A008DF82B4010208DF82C0084
:1005000001AB02AA05210AA807F0F4F80646012E5D
:1005100012D1BDF80400801E02A9085C90280BD1FE
:10052000BDF80400401E085C30B91022284600F0D7
:100530008FFC002012B070BD012E01D10220F9E71E
:100540000120F7E770B592B004460E4653A001882B
:10055000ADF8281080788DF82A008DF82B401020F7
:100560008DF82C00102231460DF12D0000F070FCAA
:1005700001AB02AA15210AA807F0BCF80546012D17
:100580000ED1BDF80400801E02A9085C902807D196
:10059000BDF80400401E085C10B9002012B070BD08
:1005A000012D01D10220F9E70120F7E730B589B02C
:1005B000044601A92046FFF793FF054615B1012027
:1005C00009B030BD9DF804009DF80810884201D1A3
:1005D000012000E0002080F0FF0018B39DF8050026
:1005E0009DF80910884201D1012000E0002080F030
:1005F000FF00B8B19DF806009DF80A10884201D1AD
:10060000012000E0002080F0FF0058B19DF80700B5
:100610009DF80B10884201D1012000E0002080F0FD
:10062000FF0008B90220CBE79DF804009DF80C10EC
:10063000884211D19DF805009DF80D1088420BD11C
:100640009DF806009DF80E10884205D19DF8070020
:100650009DF80F10884201D00220B1E709480078C8
:1006600090BB9DF81000A0422CD19DF81100A04233
:1006700016D1012015E00000C5BE1868283C1A6894
:10068000C0BE1868C4BE1868FF820000FF86000064
:1006900005000000D2BE1868FFB00000FFD60000C1
:1006A000002080F0FF0068B19DF81200A04209D13F
:1006B0009DF81300A04201D1012000E0002080F04D
:1006C000FF0008B902207BE7FFE7002078E770B55C
:1006D00092B005460C4600200190E0B28DF804006F
:1006E000200A8DF80500200C8DF80600200E8DF8EC
:1006F0000700F9A00188ADF8281080788DF82A004D
:100700008DF82B5005208DF82C0000208DF82D0041
:100710000198CDF82E006B4602AA0A210AA806F01D
:10072000E9FF0646012E0ED1BDF80000801E02A989
:10073000085C902807D1BDF80000401E085C10B985
:10074000002012B070BD012E01D10220F9E7012076
:10075000F7E770B592B005460E462846FFF726FF2C
:10076000044614B1012012B070BDDCA00188ADF8C0
:10077000281080788DF82A008DF82B5004208DF8F1
:100780002C0001AB02AA0A210AA806F0B3FF044616
:10079000012C1CD1BDF80400801E02A9085C902821
:1007A00015D1BDF80400401E085C80B99DF8080012
:1007B0009DF8091000EB01209DF80A1000EB0140A4
:1007C0009DF80B1000EB016030600020CBE7012C9E
:1007D00001D10220C7E70320C5E770B592B00546F6
:1007E0000E4602A92846FFF77BFE044614B10120FD
:1007F00012B070BD9DF808009DF80C10884201D120
:10080000012000E0002080F0FF0018B39DF80900EF
:100810009DF80D10884201D1012000E0002080F0F9
:10082000FF00B8B19DF80A009DF80E10884201D172
:10083000012000E0002080F0FF0058B19DF80B007F
:100840009DF80F10884201D1012000E0002080F0C7
:10085000FF0008B90120CBE79DF808009DF81010B3
:10086000884211D19DF809009DF8111088420BD1E2
:100870009DF80A009DF81210884205D19DF80B00E2
:100880009DF81310884201D00120B1E793A00188A0
:10089000ADF8281080788DF82A008DF82B500420B0
:1008A0008DF82C0001AB02AA0A210AA806F022FF4B
:1008B0000446012C1CD1BDF80400801E02A9085C6E
:1008C000902815D1BDF80400401E085C80B99DF841
:1008D00008009DF8091000EB01209DF80A1000EBBC
:1008E00001409DF80B1000EB0160306000207FE7B5
:1008F000012C01D102207BE7032079E770B592B08B
:1009000006460C46002001903046FFF74FFE054694
:1009100015B1012012B070BDE0B28DF80400200ABC
:100920008DF80500200C8DF80600200E8DF80700CC
:1009300069A00188ADF8281080788DF82A008DF81C
:100940002B6005208DF82C0001208DF82D000198DA
:10095000CDF82E006B4602AA0A210AA806F0CAFEAC
:100960000546012D0DD1BDF80000801E02A9085CCE
:10097000902806D1BDF80000401E085C08B9002090
:10098000C8E7012D01D10220C4E70120C2E770B5FC
:1009900092B006460C46002001903046FFF706FE56
:1009A000054615B1012012B070BDE0B28DF804000B
:1009B000200A8DF80500200C8DF80600200E8DF819
:1009C000070045A00188ADF8281080788DF82A002E
:1009D0008DF82B6005208DF82C0002208DF82D005D
:1009E0000198CDF82E006B4602AA0A210AA806F04B
:1009F00081FE0546012D0DD1BDF80000801E02A923
:100A0000085C902806D1BDF80000401E085C08B9BB
:100A10000020C8E7012D01D10220C4E70120C2E770
:100A200070B592B006460C460020019002A93046EF
:100A3000FFF756FD054615B1012012B070BD9DF8B7
:100A400008009DF80C10884201D1012000E0002030
:100A500080F0FF0018B39DF809009DF80D10884242
:100A600001D1012000E0002080F0FF00B8B19DF826
:100A70000A009DF80E10884201D1012000E00020FC
:100A800080F0FF0058B19DF80B009DF80F108842D0
:100A900001D1012000E0002080F0FF0008B9012012
:100AA000CBE79DF808009DF81010884211D19DF801
:100AB00009009DF8111088420BD19DF80A009DF89D
:100AC0001210884205D19DF80B009DF81310884242
:100AD00006D00120B1E70000FFD70000FFB1000001
:100AE000E0B28DF80400200A8DF80500200C8DF886
:100AF0000600200E8DF80700AFF224000188ADF843
:100B0000281080788DF82A008DF82B6005208DF84C
:100B10002C0002208DF82D000198CDF82E006B4698
:100B200002AA0A210AA806F0E5FD0546012D0DD10D
:100B3000BDF80000801E02A9085C902806D1BDF80F
:100B40000000401E085C08B9002076E7012D01D1A5
:100B5000022072E7012070E770B592B005460E469C
:100B60002846FFF723FD044614B1012012B070BDE2
:100B7000AFF29C000088ADF8280000208DF82A0014
:100B80008DF82B5003208DF82C008DF82D000020BF
:100B90008DF82E008DF82F6001AB02AA08210AA85B
:100BA00006F0A8FD0446012C0DD1BDF80400801EFE
:100BB00002A9085C902806D1BDF80400401E085C1C
:100BC00008B90020D2E7012C01D10220CEE7012094
:100BD000CCE770B592B005460E4602A92846FFF74D
:100BE0007FFC044614B1012012B070BD9DF80800CE
:100BF0009DF80C10884201D1012000E0002080F017
:100C0000FF0018B39DF809009DF80D10884201D12E
:100C1000012000E0002080F0FF00B8B19DF80A003C
:100C20009DF80E10884201D1012000E0002080F0E4
:100C3000FF0058B19DF80B009DF80F10884201D1BC
:100C4000012000E0002080F0FF0008B90120CBE780
:100C50009DF808009DF81010884211D19DF80900F8
:100C60009DF8111088420BD19DF80A009DF81210D2
:100C7000884205D19DF80B009DF81310884201D0E1
:100C80000120B1E7AFF2B0100088ADF828000020D5
:100C90008DF82A008DF82B5003208DF82C008DF84C
:100CA0002D0000208DF82E008DF82F6001AB02AAD8
:100CB00008210AA806F01EFD0446012C0DD1BDF83E
:100CC0000400801E02A9085C902806D1BDF804002B
:100CD000401E085C08B9002086E7012C01D10220E3
:100CE00082E7012080E72DE9F0418EB007460C46EF
:100CF0004FF04008AFF260600188ADF818108078BE
:100D00008DF81A008DF81B7006F0DEFF152842D111
:100D100000200190029003900490002532E0AFF291
:100D200088600188ADF8181080788DF81A0078195D
:100D300090FBF8F108FB1100C0B28DF81B000420F5
:100D40008DF81C0005AB2246052106A806F0D2FC52
:100D50000646012E10D1BDF81400801E205C90289C
:100D60000AD1BDF81400401E205C28B901A800EB90
:100D700085002168016003E000200EB0BDE8F0812D
:100D8000681CC5B2012DCADB102201A9204600F063
:100D90005FF81020F1E710208DF81C0005AB22460B
:100DA000052106A806F0A6FC0646012E0FD1BDF8C7
:100DB0001400801E205C902809D1BDF81400401E4C
:100DC000205C20B9BDF81400801EC0B2D5E7002019
:100DD000D3E770B58AB006460C46AFF24070018882
:100DE000ADF8081080788DF80A008DF80B6006F0D9
:100DF0006BFF152803D104208DF80C0002E01020B1
:100E00008DF80C009DF80C2021460DF10D0000F02E
:100E10001FF89DF80C00411D01AB224602A806F008
:100E200069FC0546012D0DD1BDF80400801E205C33
:100E3000902807D1BDF80400401E205C10B90020A6
:100E40000AB070BD012D01D10220F9E70120F7E7BA
:100E500040EA01039B0703D009E008C9121F08C03C
:100E6000042AFAD203E011F8013B00F8013B521EBC
:100E7000F9D27047D2B201E000F8012B491EFBD233
:100E800070470022F6E710B513460A460446194695
:100E9000FFF7F0FF204610BD30B505462A460B4649
:100EA00012F8010B13F8014B08B1A042F8D01CB1A5
:100EB000002802D06D1CF1E7284630BD421C10F816
:100EC000011B0029FBD1801A704730B50446002071
:100ED000034600E05B1C934203D2E05CCD5C401B08
:100EE000F8D030BD70B50F4D00B92868002412E06D
:100EF0000A4602E09E4203D0521C1378002BF9D11F
:100F0000DAB2224305D02BB124B1002100F8011B35
:100F100004E00446401C0678002EE9D128602046F3
:100F200070BD0000082219682DE9FE4F804681EA55
:100F30000300C00F0C46009021F0004123F0004553
:100F4000B8EB0200A94105D24046214690461C4616
:100F50000B46024623F00040104347D0270DC7F34D
:100F60000A00C3F30A510290401A019040286BDA3C
:100F7000C3F3130040F4801B0098924620B1002375
:100F8000D2EB030A63EB0B0B01985946C0F1400208
:100F9000504600F0E0F906460D4650465946019A83
:100FA00000F0F8F910EB08006141002487EA1152C3
:100FB00084EAE7731A4340D0009A62B3019A012A87
:100FC0004FEA075215DC001B61EB02014FF00042B3
:100FD00002EA0752CDE90042001C41F58011324679
:100FE0002B4600F07DFA03B0BDE8F08F4046214665
:100FF000F9E7001B61EB0201001C41F580130018AA
:101000005B412018A2F5001747EB030140EAD570B9
:10101000B6196D4111E06D084FEA360645EAC07514
:101020004FEA0752001B61EB0201001C41F58011E1
:1010300049084FEA30000019514132462B4603B0AF
:10104000BDE8F04F00F03DBA0098012240000023B7
:10105000D0EB020263EBE073009821464FEAE074A4
:10106000B8EB000061EB0401E9E783F000435BE7C4
:1010700081F0004158E72DE9FE4F81EA030404F0B6
:10108000004421F0004100944FF0000B23F0004396
:1010900050EA01045ED052EA03045BD0C3F30A5461
:1010A000C1F30A552C44A4F2F3340194A0FB02547A
:1010B000C1F3130141F48011C3F3130343F480130C
:1010C00001FB024400FB034E840A970A44EA815460
:1010D00047EA8357A4FB076802958D0A05FB07853D
:1010E0004FEA932C04FB0C542705029D4FEA065847
:1010F00047EA1637B5EB08056EEB070C870E920E24
:1011000047EA811742EA8312A7FB0201B6EB0B0103
:1011100064EB00042B0D43EA0C335E1844EB1C50C7
:10112000DA465146E7FB0201C5F313044FEA0B33DD
:1011300043EA14534FEA0432019C43EA0603A4F144
:101140000C040294009CCDE900B400F0C9F903B08E
:10115000BDE8F08F00200146F9E72DE9F04D81EA66
:10116000030404F0004B21F0004514464FF0000A40
:1011700023F0004150EA050220D054EA01021DD0BC
:10118000C5F30A570246C5F31303C1F31300C1F3B5
:101190000A5640F4801543F48013A7EB0608101B91
:1011A000D64608F2FD3873EB050002D308F10108BA
:1011B00001E092185B41B8F1000F03DA002001460C
:1011C000BDE8F08D00204FF48011064684460EE005
:1011D000171B73EB050705D3121B63EB05030643CF
:1011E0004CEA010C49084FEA300092185B4150EA82
:1011F0000107EDD152EA030012D082EA040083EA2B
:101200000501084305D0101BAB4106D20122002383
:1012100006E000224FF0004302E06FF0010253109D
:101220001AEB06004CEB085110EB0A0041EB0B01E6
:10123000BDE8F04D00F045B9C1F30A5210B5C1F355
:10124000130140F2FF3341F480119A4201DA002089
:1012500010BD40F233439A42A2F2334203DC5242C1
:1012600000F088F810BD904010BD00F0004230F052
:1012700000400AD0C10D01F56071C0F3160042EACA
:101280000151C208400711437047002001467047D2
:1012900001F0004330B421F0004150EA010206D0D1
:1012A0000A0DA2F56072C1F31301002A02DC30BC02
:1012B00000207047440F44EAC104C100E01830BC6C
:1012C00000EBC25000F0C6B830B50B460146002016
:1012D0002022012409E021FA02F59D4205D303FAF8
:1012E00002F5491B04FA02F52844151EA2F1010279
:1012F000F1DC30BD2DE9F05F0546002092469B46AB
:1013000088460646814640241BE02846414647461B
:10131000224600F02FF853465A46C01A914110D386
:1013200011461846224600F016F82D1A67EB010800
:101330004F4622460120002100F00DF817EB00096E
:101340004E41201EA4F10104DFDC484631462A4606
:101350004346BDE8F09F202A04DB203A00FA02F160
:10136000002070479140C2F1200320FA03F3194393
:1013700090407047202A04DB203A21FA02F0002135
:10138000704721FA02F3D040C2F120029140084395
:1013900019467047202A06DBCB17203A41FA02F0A3
:1013A00043EAE07306E041FA02F3D040C2F12002C2
:1013B00091400843194670470FB4002300B589B027
:1013C0000CA900910B996FF00042CB601E4B069365
:1013D0001E4B07930423CDE901321D4A08920246B1
:1013E0006B46002000F07AFA09B05DF814FB70B586
:1013F00086B006464FF0FF300091CDE90101002094
:1014000015460C4604903246694604A8FFF7D4FFFF
:1014100002460498211825B108B1084600E020468C
:101420002860049800280DD0002A02DD0098884228
:1014300008D0081B0094CDE901043246694604A88F
:10144000FFF7BAFF06B070BD151B0208331B020878
:10145000A11702080029A8BF7047401C490008BF17
:1014600020F00100704710B4B0FA80FC00FA0CF0D4
:1014700050EA010404BF10BC704749B1CCF120040C
:1014800021FA04F411FA0CF118BF01212143084399
:10149000A3EB0C01CB1D4FEA00614FEA102042BFC5
:1014A000002010BC704700EBC35010440029A4BFBB
:1014B00010BC7047401C490008BF20F0010010BC60
:1014C000704710B5141E73F1000408DA401C41F196
:1014D000000192185B411A4301D120F0010010BDB8
:1014E0002DE9F04D92469B4611B1B1FA81F202E02E
:1014F000B0FA80F220329046FFF72DFF04460F46E7
:1015000040EA0A0041EA0B0153465A46084313D009
:10151000114653EA010019D0C8F140025046FFF7C6
:1015200029FF05460E46504659464246FFF713FF2F
:10153000084305D0012004E020463946BDE8F08D7F
:101540000020054346EAE0762C4337430A986305BA
:10155000E40AA0EB08000022FD0A44EA47540A30DE
:1015600002D500200146E9E7010510196941DDE9CE
:10157000084500196941BDE8F04DA2E7C1F30A52E0
:10158000C1F3130140F2FF3341F480119A4202DAB1
:1015900000200146704740F233439A42A2F23342A0
:1015A00002DC5242FFF7E6BEFFF7D5BE30B5041E9F
:1015B00071F1000404DB4FF00044404264EB010190
:1015C000141E73F1000405DB1C464FF00043524229
:1015D00063EB0403994208BF904230BD4FF0010015
:1015E000394908604FF07800384908604FF0CC1056
:1015F000374908604FF0CC303649086036483749E3
:1016000008603748374908604FF0000036490860E5
:101610004FF00000354908603548364908604FF002
:10162000CC30354908603548354908603548364979
:1016300008604FF00000354908604FF00000344961
:1016400008603448344908603448354908603548F2
:10165000354908603548364908604FF00000354983
:1016600008604FF00000344908602A483349086098
:101670004FF44060324908603248334908603348CB
:10168000334908604FF00000324908604FF0000015
:101690003149086041F2150030490860304831494D
:1016A00008606FF07040304908603048804730482B
:1016B0000047FEE7FEE7FEE7FEE7FEE7FEE7FEE7A0
:1016C000FEE7FEE7FEE7000038380240303802400F
:1016D000200C0240240C02400A0AAAAA000C024074
:1016E0000F0FFFFF080C0240040C02400C0C0240DC
:1016F000CCC00CC020100240241002408A82AAAA4A
:1017000000100240CFC3FFFF081002400410024047
:101710000C100240CCCCCC00201402400000CCCCF9
:1017200024140240AA0A00AA00140240FF0F00FF7E
:1017300008140240041402400C1402402018024015
:1017400024180240AA0A200000180240FF0F3000AF
:1017500008180240041802400C180240100000A0B3
:1017600005072010140000A00C0100A059E3020896
:1017700089010208064C074D06E0E06840F00103CD
:1017800094E8070098471034AC42F6D3FEF700FD0A
:10179000303803086038030800487047783703087A
:1017A00010B50446FFF7F8FF0068005D00F0010087
:1017B00010BD00002DE9FF4F087883B09946FF283F
:1017C00005D0491C2D2804D00024002008E000206A
:1017D0000BE00124F9E700EB800003EB4000491C1B
:1017E0000B78FF2BF7D104B1404200230293147809
:1017F00019461D462D2C01D02B2C04D1521C2D2C0A
:1018000013D000240294AA461478FF2C0FD00A2586
:10181000A3FB057801FB05814FF0000C03FB0C11C5
:10182000521CE3194AEB0101EEE70124EAE7814487
:1018300053EA010002D019F5C87F06DA03980021A7
:10184000C0E9001107B0BDE8F08F0025AE4E2F466D
:10185000DFF8B882184600F07DF9CDE90001B9F152
:10186000000002DAC9F1000400E004460023A74AA0
:101870001AEB030B42EB045A12E0E00707D02A46AA
:10188000334638464146FFF7F6FB074688462A4668
:10189000334610461946FFF7EEFB05460E46641028
:1018A000002CEAD1DDE90001B9F1000F5A46534698
:1018B00006DAFFF752FC3A464346FFF74EFC05E0D6
:1018C000FFF7D9FB3A464346FFF7D5FB029A0AB128
:1018D00081F00041039AC2E90001B3E72DE9FF4F0F
:1018E0001F468DB0D7E901464FF0FF382E20454600
:1018F0004FF000090B90B9696D1C0E988847396A42
:10190000824688470028F6D1BAF1FF3F0AD024F476
:10191000D064002E11DDBAF12B0F08D0BAF12D0FD3
:101920000BD102E0404611B08DE744F48064B96900
:101930006D1C0E9888478246761E6946600501D563
:101940002D2000E02B208DF8000001F1010B0DF19E
:10195000200809E0B9696D1C0E98884782460F98E7
:1019600044F40074761E0560002E02DDBAF1300FDB
:10197000F0D00B998A453ED144F0800406E00F99DF
:10198000681CA9F1010944F400740860B9696D1C70
:10199000761E0E98884782463028F0D02BE00B99AF
:1019A0008A4505D1200603D444F08004761E18E051
:1019B000504610F0C7FB08B30DF11301761E44F436
:1019C00000748B4508D2AAF130000BF8010B2006F9
:1019D00007D5A9F1010003E0200602D409F10100B6
:1019E0008146A00502D50F99681C0860B9696D1C75
:1019F0000E9888478246002ED1DC53E0002E51DD40
:101A0000BAF1650F02D0BAF1450F4BD1A00549D507
:101A1000B9696D1C24F44074761E0E98884782467E
:101A2000002E0CDD2B2804D0BAF12D0F07D144F481
:101A30008074B9696D1C0E9888478246761EE00551
:101A400001D52D2100E02B2108F8011BCDF82C80B9
:101A500021E00DF12901761E44F4007488450CD272
:101A6000AAF1300010F0FF0088F8000002D10B99B5
:101A7000884509D908F1010806E0E00501D52448A8
:101A800001E042F20F708146B9696D1C0E988847DB
:101A900082460F980560002E04DD504610F052FB80
:101AA0000028D6D1F9690E988847FF208BF80000EE
:101AB00088F800000020069007904B466A4608A967
:101AC00006A8FFF777FEA00502D46FF001002AE711
:101AD00014F0240F0AD0E00714D1DDE906123868AB
:101AE000031D3B600068C0E900120BE0DDE9060160
:101AF000FFF7CEFB0146E00704D13868021D3A60CB
:101B00000068016028460EE7000014400000F03F26
:101B1000F1D8FFFF426842B1016811F8013B23B1DF
:101B2000521EC0E90012184670470121C160881E8C
:101B3000704742685AB1C368016843B983688B42F1
:101B400005D0491E521CC0E90012002070474FF01A
:101B5000FF3070470EB540F2334202920022CDE9C9
:101B600000221346FFF7BCFC03B000BD70B58C1813
:101B700010F8015B15F0070301D110F8013B2A11A1
:101B800006D110F8012B03E010F8016B01F8016B8E
:101B90005B1EF9D12B0705D40023521E0DD401F88A
:101BA000013BFAE710F8013BCB1A921C03E013F853
:101BB000015B01F8015B521EF9D5A142D8D3002088
:101BC00070BD00002DE9F04FDDB000240025282174
:101BD0003FA8FFF756F9342132A8FFF752F9342114
:101BE00025A8FFF74EF9FF26342118A8FFF749F979
:101BF0000027A0460FF2F8394FF0010A1422FD49E0
:101C000013A8FFF725F941F27C6B002012903421D4
:101C100005A8FFF736F90020049004A80EF0DCF8C0
:101C2000F0200CF001FC13A84B4642463946CDE9A2
:101C3000010BCDF800A018A80EF06AF801200EF0F4
:101C40000BF9012010F0AEF8012010F0A5F80020EB
:101C50000EF056F800200CF0E1FB0EF023F8E648F9
:101C60000AF086F8E448C3884288E4A1E64810F008
:101C700049F9E148808807283DD2DFE800F0040CEC
:101C8000141C242C3400DC4843890289DFA1E3487A
:101C900010F038F937E0D84843890289E0A1DF48DD
:101CA00010F030F92FE0D44843890289E0A1DB48E5
:101CB00010F028F927E0D04843890289E0A1D748ED
:101CC00010F020F91FE0CC4843890289E0A1D348F5
:101CD00010F018F917E0C84843890289E0A1CF48FD
:101CE00010F010F90FE0C44843890289E0A1CB4805
:101CF00010F008F907E0C04843890289C3A1C7482A
:101D000010F000F900BF00BF822300220121DCA0F7
:101D10000BF0F6F840F2DC500CF0FCFAFEF791FA0A
:101D200064200CF0F7FA06F04BFA03F070FA0AF0B0
:101D300025F83F90012406E003220821204603F005
:101D4000EFF9601CC4B2052CF6DB002003F06EFA3C
:101D50000121084603F038FB0121022003F034FB87
:101D60000121032003F030FB0121042003F02CFBB0
:101D7000D6E20AF061FE0646732E7DD18223002250
:101D80000121C4A00BF0BCF80123002203219E48CE
:101D900009F04AFF042300220321A04809F044FF70
:101DA000954809F0E5FF9448C388428893A1964876
:101DB00010F0A8F8012300220721934809F034FF0E
:101DC0008D48808807283DD2DFE800F0040C141C01
:101DD000242C34008848438902898CA18F4810F054
:101DE00091F837E08448438902898DA18B4810F02F
:101DF00089F82FE08048438902898DA1874810F037
:101E000081F827E07C48438902898DA1834810F03E
:101E100079F81FE07848438902898DA17F4810F046
:101E200071F817E07448438902898DA17B4810F04E
:101E300069F80FE07048438902898DA1774810F056
:101E400061F807E06C484389028970A1734810F07B
:101E500059F800BF00BF02230022052191A00BF01A
:101E60004FF80423002207216C4809F0DDFE40F6FC
:101E7000B8300CF04FFA00E01AE000208D490870ED
:101E80000DF0EAFF0021012003F09EFA002102205C
:101E900003F09AFA0021032003F096FA00210420AF
:101EA00003F092FA012003F0C1F95DB0BDE8F08FB4
:101EB00000BF00BF09F062FF3F99401AB0F5FA6F0A
:101EC0003FD912A80DF0A2FF05A80DF091FF04A8BC
:101ED0000DF082FF7848007830B99DF8482077A14E
:101EE00032A810F00FF809E073480078012805D1F6
:101EF0009DF8482074A132A810F004F88123002234
:101F0000012132A80AF0FCFF6B48007830B99DF837
:101F100010206FA125A80FF0F5FF09E066480078B2
:101F2000012805D19DF810206DA125A80FF0EAFF2A
:101F300041230022032125A80AF0E2FF09F01EFF39
:101F40003F9009F01BFF4099401A642802D909F01C
:101F500015FF40905CA951A806F00EFD0546012D25
:101F600041D105F0B1FE054615B1C82009F006FEC5
:101F7000142D39D005DC4DB1112D1CD0132D34D1C9
:101F8000BEE11F2D32D0212DF9D105E14A4800785C
:101F900030B942230022072155A00AF0B1FF09E021
:101FA00045480078012805D142230022072152A08C
:101FB0000AF0A6FFB3E14048007898B94223002216
:101FC000052150A00AF09CFF59A805F093FE9DF84A
:101FD00068019DF86711CDE900109DF866319DF804
:101FE000652195E09FE09BE191E197E12EE1000002
:101FF00054435000F029030850221968253264D454
:10200000C2253264C8D5000005001868D0C7C6DAFA
:10201000C8D52532643A253032640000250018689E
:10202000D0C7C6DAD2BB2532643A2530326400000C
:10203000D0C7C6DAB6FE2532643A253032640000D5
:10204000D0C7C6DAC8FD2532643A253032640000B4
:10205000D0C7C6DACBC42532643A253032640000DA
:10206000D0C7C6DACEE52532643A253032640000A6
:10207000D0C7C6DAC1F92532643A2530326400008F
:10208000D5FDD4DABDF8D0D0C0CFBBAFB2E2CAD450
:10209000A3A10000BFAACABCB2E2CAD4CAB1BCE4C0
:1020A0003A000000BDE1CAF8B2E2CAD4CAB1BCE449
:1020B0003A0000000300186800001868D0C5BAC5CF
:1020C000C7BFB6C83A2564004353513A256400009F
:1020D000CDF8C2E7C1ACBDD3BDF8B6C83A2564009F
:1020E00050726F6772657373206261723A25640083
:1020F000CEDEBFA8000000004E6F20636172642135
:1021000000000000BFA8C0E0D0CDA3BA204100006D
:1021100084A149A80FF0F6FE42230022072149A816
:102120000AF0EEFE20E08548007801281CD1422309
:102130000022052182A00AF0E3FE59A805F0DAFD8D
:102140009DF868019DF86711CDE900109DF8663192
:102150009DF865217EA149A80FF0D4FE42230022FC
:10216000072149A80AF0CCFE00240AE051A90A5D23
:1021700049A9022303FB04107BA10FF0C3FE601CDE
:10218000C4B29DF870018442F0DB42230022072193
:1021900049A80AF0B5FEC2E068480078E8B94223D1
:1021A0000022052172A00AF0ABFE59A805F0A2FD9D
:1021B0009DF868019DF86711CDE900109DF8663122
:1021C0009DF8652157A149A80FF09CFE42230022EB
:1021D000072149A80AF094FE20E058480078012819
:1021E0001CD142230022052164A00AF089FE59A8CF
:1021F00005F080FD9DF868019DF86711CDE900109C
:102200009DF866319DF8652151A149A80FF07AFE2D
:1022100042230022072149A80AF072FE00240AE0A6
:1022200051A90A5D49A9022303FB04104EA10FF036
:1022300069FE601CC4B29DF870018442F0DB422349
:102240000022072149A80AF05BFE68E03B480078BD
:10225000E8B94223002205214CA00AF051FE59A8FA
:1022600005F048FD9DF868019DF86711CDE9001063
:102270009DF866319DF865212AA149A80FF042FE1C
:1022800042230022072149A80AF03AFE20E02B4809
:10229000007801281CD14223002205213FA00AF02A
:1022A0002FFE59A805F026FD9DF868019DF86711DD
:1022B000CDE900109DF866319DF8652124A149A85B
:1022C0000FF020FE42230022072149A80AF018FE41
:1022D00000240AE051A90A5D49A9022303FB041066
:1022E00021A10FF00FFE601CC4B29DF87001844262
:1022F000F0DB42230022072149A80AF001FE0EE08C
:102300004223002207212AA00AF0FAFD07E0422317
:102310000022072128A00AF0F3FD00E000BF00BF63
:1023200027E50000BFA8BAC5A3BA2530327825300A
:102330003278253032782530327800000000186875
:10234000436172642074797065A3BA204100000073
:102350004E756DA3BA25303278253032782530326B
:1023600078253032780000002530327800000000F7
:10237000BFA8C0E0D0CDA3BA204200004361726480
:102380002074797065A3BA2042000000BFA8C0E0A5
:10239000D0CD3A4D312B435055000000436172645B
:1023A00020747970653A4D312B4350550000000080
:1023B0004D312053353000004D312053373000006F
:1023C00010B51EA1022000F045F91D480078C0B9E3
:1023D0008123002201211BA00AF092FD012300228B
:1023E00003211BA00AF08CFD0123002205211BA064
:1023F0000AF086FD0123002207211BA00AF080FDC0
:102400001BE00F480078012817D181230022012109
:1024100018A00AF075FD01230022032118A00AF07C
:102420006FFD01230022052118A00AF069FD012398
:102430000022072118A00AF063FD10BD0D0A00005C
:1024400000001868503138C6C0B9C0CFB5CDB30050
:1024500046313AD6D8C6F4CFB5CDB30046323ACFDE
:10246000F2C9CFB7ADD2B30046333ACFF2CFC2B73D
:10247000ADD2B3005031382044454D4F000000002C
:1024800046313A52455345540000000046323A5016
:10249000414745205550000046333A5041474520BA
:1024A000444F574E0000000010B509F06DFC02F0DB
:1024B000F3F80DF0BFFD07F0D3FD02F0A1FA012003
:1024C0000DF0B2FE01200FF067FC01200FF064FC5C
:1024D0000DF0E8FB00200DF0BFFC09F097FE4FF473
:1024E000165009F02FFE09F06BFB064908700846EC
:1024F000007828B1012008704FF4E13009F022FE85
:1025000010BD00004EBE186870B504460E46154654
:10251000CCB100F03BF801200F4908700846C460B8
:1025200006F109000A21B0FBF1F00B49486005F102
:1025300009000A21B0FBF1F00749886009F01EFC90
:102540000549086106E000F027F8142102485030E0
:10255000FEF797FC002070BDFC4B19681CB50121EB
:10256000084607F015FE012000908DF804000020B9
:102570008DF806008DF805006946034802F014F84E
:102580000120014948831CBD00000240012001498F
:1025900008837047000002400120014948837047CA
:1025A0000000024070B5074D002428194178285DCD
:1025B00007F01CFBA41C242CF7D3034904208872C9
:1025C000012070BD76211968BC3D1A6870B50D4DAB
:1025D000002428194178285D07F008FBA41C242C4E
:1025E000F7D3084D0024AD1F28194178285D07F066
:1025F000FDFAA41C062CF7D303490420887201209D
:1026000070BD000076211968BC3D1A680FE00123F7
:102610004FF4E1324FF47A7118460AF045F9FFF7AA
:10262000BBFF034903A00FF06DFB00BFFEE7EEE721
:10263000A73603080D0A0D0A3D3D3D3D3D3D3D25B4
:10264000733D3D3D3D25583D3D3D3D3D0D0A0D0A47
:102650000000000070B504460D46224629460120C0
:102660000AF064F970BD000001490860704700007D
:102670009420196801490860704700009820196883
:102680001CB50121202007F083FD4FF4007000905D
:1026900001208DF8040000208DF806008DF805005B
:1026A00069460C4801F080FF0121202007F070FDF1
:1026B0004FF4806000906946064801F075FF4FF4C2
:1026C000007004491A310880400008800020024947
:1026D00008701CBD001402404FBE186830B10128BC
:1026E0000ED0022818D003282CD120E04FF400711E
:1026F0001D4A11804900118000211C4A11702BE0F5
:102700004FF40071184A921E11804900921C1180EA
:102710000121164A11701FE04FF40071124A118016
:102720004900921E11800221104A117014E04FF4EA
:1027300000710D4A921E11804900118003210B4A3D
:10274000117009E04FF40071074A118049001180AF
:102750000021064A117000BF00BF04490A780449ED
:1027600081F82420704700001A1402404FBE1868F8
:10277000204B196810B502460D4B1869431C0C4CD0
:10278000236104F11803195420460069B0F5C05FB5
:1027900002D30020183B18610548C068B0F5C05F3F
:1027A00004D20348C068401C014BD860002010BD13
:1027B000D4EF186801490860704700009C20196830
:1027C0001CB50121202007F0E3FC4FF400700090BD
:1027D00001208DF8040000208DF806008DF805001A
:1027E00069460C4801F0E0FE0121202007F0D0FCF2
:1027F0004FF4806000906946064801F0D5FE4FF422
:10280000007004491A310880400008800020024905
:1028100008701CBD0014024050BE186830B1012879
:102820000ED0022818D003282CD120E04FF40071DC
:102830001D4A11804900118000211C4A11702BE0B3
:102840004FF40071184A921E11804900921C1180A9
:102850000121164A11701FE04FF40071124A1180D5
:102860004900921E11800221104A117014E04FF4A9
:1028700000710D4A921E11804900118003210B4AFC
:10288000117009E04FF40071074A1180490011806E
:102890000021064A117000BF00BF04490A780449AC
:1028A00081F82C20704700001A14024050BE1868AE
:1028B000204B196810B502460D4B1869431C0C4C8F
:1028C000236104F11803195420460069B0F5C05F74
:1028D00002D30020183B18610548C068B0F5C05FFE
:1028E00004D20348C068401C014BD860002010BDD2
:1028F000EC0719680149086070470000A0201968BA
:102900001CB50121042007F043FC4FF40070009037
:1029100001208DF8040000208DF806008DF80500D8
:1029200069460C4801F040FE0121042007F030FC0C
:102930004FF4807000906946064801F035FE4FF470
:10294000007004491A3108804010088000200249B4
:1029500008701CBD0008024051BE186870B5124CCA
:10296000206A4FF4E135A84202D194F8260080B1E4
:1029700094F82600012802D10C480DF043FD0223F3
:102980002A464FF47A71042009F08EFF01200BF0E3
:10299000C1FC94F82400002804D0BDE87040002059
:1029A000FFF79CBE70BD0000204B1968004C004032
:1029B0002DE9F04704460B4616460020012B01D0B6
:1029C000022B01D1641E0C336427B4FBF7F101EB39
:1029D000C10707EB0117A4EB870203F1010808EB1D
:1029E000880909EBC8084FF00509B8FBF9F84FEA68
:1029F000E17901EB99794FEAA9094FF0020A0AFB44
:102A000011994FEAE27A02EB9A7A02EBAA0AD144D0
:102A1000C844B044A8F1010500E0ED1D002DFCDB29
:102A2000072795FBF7FC07FB1C57F8B200B90720F6
:102A3000BDE8F087F0B5ADF25C4DFF254FF4FC71B9
:102A400085A8FEF71EFAF74806C8849283910027EE
:102A5000FDF7F7FB64200BF05DFC05F0B1FB09F01E
:102A6000AAF8EBE2F048007890B981230022012116
:102A7000EEA00AF045FA412300220321EFA00AF05C
:102A80003FFA412300220521F0A00AF039FA15E0AF
:102A9000E5480078012811D1812300220121EEA010
:102AA0000AF02EFA412300220321F0A00AF028FAAE
:102AB000412300220521F1A00AF022FA44E009F0A6
:102AC000BBFF0546732D06D10AF059F906F0D8FE72
:102AD0000DF25C4DF0BD312D17D1012709F06BF8D7
:102AE000D148007830B9822300220121E6A00AF003
:102AF00007FA09E0CC480078012805D1822300229A
:102B00000121E3A00AF0FCF91FE0322D17D10227C2
:102B100009F051F8C448007830B98123002201211E
:102B2000D9A00AF0EDF909E0BF480078012805D1E5
:102B3000822300220121D6A00AF0E2F905E0332D1C
:102B400002D103F0AFFE00E0B9E700BF72E209F086
:102B500073FF0546732D01D100276EE2012F04D0CB
:102B6000022F7BD0032F7AD103E20DF58B610DF29A
:102B70002C4005F001FF0646012E71D105F0A4F8A6
:102B80000646142E6DD005DC4EB1112E1CD0132E2E
:102B900068D1D9E11F2E7CD0212EF9D17DE0A24849
:102BA000007830B9412300220321BDA00AF0A8F922
:102BB00009E09D480078012805D141230022032126
:102BC000B9A00AF09DF9CEE19748007800BB4123F7
:102BD00000220321B7A00AF093F90DF24C4005F052
:102BE00089F89DF850049DF84F14CDE900109DF828
:102BF0004E349DF84D24B2A10DF20C400FF082F935
:102C00004123002205210DF20C400AF079F923E05E
:102C10008548007801281FD1412300220321AEA05E
:102C20000AF06EF90DF24C4005F064F89DF850047E
:102C30009DF84F14CDE900109DF84E349DF84D24B9
:102C4000A9A10DF20C400FF05DF9412300220521EE
:102C50000DF20C400AF054F9002410E087E1E7E19E
:102C600082E178E17EE10DF22C410A5D20390223F8
:102C700003FB0410A2A10FF045F9601CC4B29DF83B
:102C800058048442EFDB4123002207210DF20C405F
:102C900000E064E00AF034F965E16348007800BBC5
:102CA00041230022032198A00AF02AF90DF24C409A
:102CB00005F020F89DF850049DF84F14CDE9001060
:102CC0009DF84E349DF84D247DA10DF20C400FF07F
:102CD00019F94123002205210DF20C400AF010F9E8
:102CE00023E05148007801281FD14123002203210D
:102CF00088A00AF005F90DF24C4004F0FBFF9DF8A6
:102D000050049DF84F14CDE900109DF84E349DF805
:102D10004D2475A10DF20C400FF0F4F84123002270
:102D200005210DF20C400AF0EBF800240BE00DF247
:102D30002C410A5D2039022303FB041070A10FF01F
:102D4000E1F8601CC4B29DF858048442EFDB4123D3
:102D5000002207210DF20C400AF0D2F803E13248BC
:102D6000007800BB4123002203216EA00AF0C8F8BE
:102D70000DF24C4004F0BEFF9DF850049DF84F1436
:102D8000CDE900109DF84E349DF84D244CA10DF274
:102D90000C400FF0B7F84123002205210DF20C4042
:102DA0000AF0AEF823E02048007801281FD1412323
:102DB000002203215FA00AF0A3F80DF24C4004F0BA
:102DC00099FF9DF850049DF84F14CDE900109DF82F
:102DD0004E349DF84D2444A10DF20C400FF092F8B2
:102DE0004123002205210DF20C400AF089F800244D
:102DF0000BE00DF22C410A5D2039022303FB041085
:102E00003FA10FF07FF8601CC4B29DF858048442C3
:102E1000EFDB4123002207210DF20C400AF070F88D
:102E2000A1E00000E8290308000018683120BFA8CD
:102E3000C0E0D0CDB2E9D1AF000000003220435055
:102E400055BFA841504455D6B8C1EE0033204D318E
:102E5000BFA8B2E2CAD4000031204361726420747A
:102E600079706520717565727900000032204350D9
:102E700055204150445520434D44000033204D31EE
:102E80002054455354000000C7EBB7C5BFA800004D
:102E90005075742074686520636172642E2E2E0054
:102EA000CEDEBFA8000000004E6F20636172642177
:102EB00000000000BFA8C0E0D0CDA3BA20410000B0
:102EC000BFA8BAC5A3BA253032782530327825306C
:102ED0003278253032780000436172642074797052
:102EE00065A3BA20410000004E756DA3BA253032AB
:102EF000782530327825303278253032780000005D
:102F00002530327800000000BFA8C0E0D0CDA3BAC1
:102F100020420000436172642074797065A3BA2076
:102F200042000000BFA8C0E0D0CD3A4D312B435045
:102F3000550000004361726420747970653A4D3128
:102F40002B435055000000004123002203213CA0E8
:102F500009F0D6FF07E04123002203213AA009F03F
:102F6000CFFF00E000BF01E008F025FE61E003278D
:102F70005FE001200EF010FF0DF58B610DF22C408B
:102F800005F0FAFC012852D104F09EFE0646112EEF
:102F900001D0212E4BD102AB03AA052183A804F056
:102FA00079FF012843D1BDF8082003A928A00EF01D
:102FB000E7FCBDF80800801E03A9085C90281DD11D
:102FC000BDF80800401E085CC0B92448007830B93C
:102FD00081230022012122A009F092FF09E01F486D
:102FE0000078012805D181230022012121A009F0C8
:102FF00087FF4FF47A700BF08DF91AE017480078CC
:1030000030B98123002201211EA009F079FF09E0D7
:1030100012480078012805D18123002201211EA039
:1030200009F06EFF4FF47A700BF074F901E000E0E4
:1030300000BF00BF002F7FF48AAD00BF12E5000083
:103040004D312053353000004D31205337300000D2
:103050000D0A526561643C2D0000000000001868F4
:1030600041504455D6B8C1EEB2E2CAD4B3C9B9A6EC
:1030700000000000415044552054455354204F4B0C
:103080000000000041504455D6B8C1EEB2E2CAD4A7
:10309000CAA7B0DC000000004150445520544553FD
:1030A00054204572726F720038B50446206940683A
:1030B0000090009820F00200801C00900099206988
:1030C000416003200EF0EAF838BD70B506460C46A4
:1030D00004F08000802808D104F07F0000EB80011C
:1030E00006F58E7000EBC10505E004EB840106F5E2
:1030F0005D7000EBC1050020A87004F07F0028700F
:10310000C4F3C0106870294630460EF038FA00202B
:1031100070BD2DE9F04106460D4690461F4605F06C
:103120008000802808D105F07F0000EB800106F5C3
:103130008E7000EBC10407E005F07F0000EB80011A
:1031400006F55D7000EBC10405F07F00207005F00E
:103150008000C0096070C4F80880E770607808B12A
:103160002078E080022F01D10020207121463046D6
:103170000EF0B9F90020BDE8F0812DE9F0410546D7
:103180000E461746984606F07F0000EB800105F5D5
:103190005D7000EBC104E760C4F814800020A061FA
:1031A000607006F07F002070E878012800D1276168
:1031B000207820B9214628460EF0B9F803E02146D0
:1031C00028460EF036FA0020BDE8F08108B500224E
:1031D0000092009A61F30A12009202691268009B41
:1031E0001A4303691A6008BD70B506460C4604F020
:1031F0008000802808D104F07F0000EB800106F5F4
:103200008E7000EBC10505E004EB840106F55D70EE
:1032100000EBC1050120A87004F07F002870C4F302
:10322000C0106870294630460EF0D1F9002070BDFC
:103230002DE9F04107460D461646984605F07F00F9
:1032400000EB800107F58E7000EBC1040120607077
:1032500005F07F002070E66026610020A061C4F8C0
:103260001480207820B9214638460EF060F803E03B
:10327000214638460EF0DDF90020BDE8F0811CB58E
:10328000044620460EF01EF8E068C0680090204614
:103290000EF0F4FA03280BD10020A0704FF4007058
:1032A000A080009820F4705000F51050009009E0C4
:1032B0000120A0704020A080009820F4705000F5FC
:1032C000A05000900098E168C8600020019001982B
:1032D00020F4005000F5005001900198E168486129
:1032E00001201CBDF8B505460024002000902846AA
:1032F0000EF0F7FA064690E006F0010000287DD0B7
:10330000E1B2284600F0CAFA0090009800F00100EF
:1033100030B3012000FA04F72869406BB8432969EB
:10332000486300200090009820F00100401C0090AD
:1033300005F1180050F8240000998160E1B2394885
:103340000068426828469047E878012808D13CB9CF
:1033500040F21110405D042802D128460EF092F888
:103360000098C0F3C00060B100200090009820F0E9
:1033700008000830009005F1180050F8240000996A
:1033800081600098C0F3001060B1002000900098A8
:1033900020F010001030009005F1180050F82400C3
:1033A000009981600098C0F3801060B10020009007
:1033B000009820F040004030009005F1180050F8CF
:1033C0002400009981600098C0F3400060B10020A3
:1033D0000090009820F00200801C009005F1180079
:1033E00050F82400009981600098C0F3C01028B103
:1033F0002146284600F07CFA002000E00BE0009017
:10340000009820F080008030009005F1180050F8FE
:10341000240000998160641C7608002E7FF46CAF54
:103420000120F8BDF42119687CB504460025002070
:10343000019020460EF05DFA06466FE006F00100AE
:10344000002869D0E9B220460EF05BFA019001989D
:1034500000F00100C8B300200190019820F00100A5
:10346000401C019004F1540050F82500019981603E
:10347000E078012817D104F1540050F825000069C4
:10348000009005EB850104F55D7000EBC1008068DC
:103490000099C1F31201411A05EB850204F55D7034
:1034A00000EBC2008161E9B21E4800680268204654
:1034B0009047E078012808D13DB940F21110005D35
:1034C000052802D120460DF0DDFF0198C0F3400031
:1034D00060B100200190019820F00200801C019052
:1034E00004F1540050F82500019981600198C0F35F
:1034F000C00088B10B4800688168204688470020DA
:103500000190019820F008000830019004F1540067
:1035100050F82500019981606D1C7608002E8DD130
:1035200001207CBDF42119683EB50446A07A70B133
:10353000D4F80C010090009820F002000090009850
:1035400020F0010000900099D4F80C0101600020E7
:103550000190019820F00100401C01902069406812
:1035600001998843216948600848006881692046BC
:10357000884700200290029820F0004000F10040AF
:1035800002900298E168486101203EBDF42119686B
:103590007CB5044600200190019820F01000103006
:1035A0000190E068806901998843E1688861E0687A
:1035B000006A0090009800F00F0000EB800104F515
:1035C0005D7000EBC1050098C0F3434007282DD281
:1035D000DFE800F02C04051D1E2C1F0027E00098DA
:1035E000C0F30A1090B10098C0F30A122046E968AF
:1035F0000EF091F9E8680099C1F30A110844E860F7
:10360000A8690099C1F30A110844A8610FE00EE00F
:103610000DE0082204F2CC5120460EF07CF9A86996
:103620000099C1F30A110844A86100E000BF00BF7F
:10363000E068806901990843E168886101207CBDE8
:1036400038B5044608480068C1682046884700200D
:103650000090009820F00800083000900098E16881
:103660004861012038BD0000F42119681FB50446E7
:10367000002000904FF48970005D0090234800689E
:1036800041692046884720698068019000200390A6
:10369000039820F4006000F5006003900398E1684F
:1036A0004861A07A70B3019800F0010050B340F275
:1036B0001510005D012825D19DF80000032821D1B7
:1036C00000200290029820F00100401C0290D4F8E3
:1036D0000C01006802990843D4F80C1108600298A4
:1036E00020F00200801C0290D4F80C0100680299BE
:1036F0000843D4F80C1108600548006840F0060043
:1037000003490860012004B010BD0000F4211968CD
:1037100010ED00E030B587B004460020029006901E
:103720000590049003900190029820F00100401C45
:10373000029020694068029988432169486000210D
:1037400020460EF071F800250BE0FF2104F118006F
:1037500050F82500816004F1540050F82500816084
:103760006D1C6078A842F0D84FF0FF31206981616C
:1037700006986FF30F00401C0690069880B200F583
:103780008030069006992069C161059820F00800F4
:1037900008300590059820F00100401C0590059820
:1037A00020F00200801C0590059920694161049871
:1037B00020F00100401C0490049820F0080008301C
:1037C0000490049820F00200801C04900499206961
:1037D0000161206900680390039820F4FE60039063
:1037E00003992069016020460DF04CFE00200190F5
:1037F000019820F4805000F5805001900198E16814
:10380000486104480068016920468847012007B0E4
:1038100030BD0000F421196838B50446002000903E
:1038200007480068C16920468847009820F4801046
:1038300000F5801000900098E1684861012038BDD3
:10384000F421196838B50446002000900748006844
:10385000016A20468847009820F4001000F5001007
:1038600000900098E1684861012038BDF421196892
:1038700038B50446E068406800900098C0F38000C6
:1038800020B105480068816A204688470098E168B1
:103890004860012038BD0000F421196830B50246A7
:1038A00015692B6915696C6B24FA01F505F00105A2
:1038B00043EAC51302F1180555F82150AD6805EA31
:1038C000030030BD38B5044608480068416A204608
:1038D000884700200090009820F0804000F1804050
:1038E00000900098E1684861012038BDF421196812
:1038F0002DE9F84307460E4600250020009006EB10
:10390000860107F58E7000EBC104D4E90501451A64
:10391000A068A84200D2A568E81C4FEA900807F109
:10392000180050F82600806900901BE0D4E90501DA
:10393000451AA068A84200D2A568E81C4FEA900882
:10394000ABB2F2B23846E1680DF0F9FFE068284406
:10395000E060A0692844A06107F1180050F8260033
:1039600080690090009880B2404506D9D4E90510DE
:10397000884202D260690028D8D10120BDE8F883CE
:1039800021B1026842F00102026003E0026822F005
:1039900001020260704700002DE9F04790B08246B6
:1039A000BAF1070F69D2DFE80AF06804142435463B
:1039B00057000121880506F0EBFB494D494C4FF0BB
:1039C00000682F1D484E4FF4805900204749086079
:1039D00056E00121480506F0DBFB454D454C4FF014
:1039E00000682F1D444E4FF4805900204349086061
:1039F00046E00121480506F0CBFB414D3D4C603CC3
:103A00004FF000682F1D3F4E4FF4805900203E4973
:103A1000086035E00121480506F0BAFB3B4D354C06
:103A2000483C4FF000682F1D394E4FF400490020EC
:103A30003849086024E00121480506F0A9FB364D0D
:103A40002C4C783C4FF000682F1D344E4FF4005939
:103A500000203349086013E00121880506F098FB37
:103A6000304D204C603C4FF020682F1D2E4E4FF4FF
:103A7000006900202D49086002E010B0BDE8F08721
:103A800000BF204600F054F8CDF80480029703965A
:103A900000200490CDF8149006904FF480600790B9
:103AA0000020089009904FF480700A904FF4403045
:103AB0000B9000200C9001200D9000200E900F9094
:103AC00001A9204600F0E4F80122402128460CF02C
:103AD00090FC01212046FFF753FF00BFCDE7000017
:103AE0000010014088640240284C196898BE18688C
:103AF0000044004088600240285C19689CBE186839
:103B000000480040286C1968A0BE1868004C0040AE
:103B1000287C1968A4BE18680050004028FC196869
:103B2000A8BE186800140140281C1A68ACBE1868AA
:103B3000016821F0010101600021016041608160A4
:103B4000C1600161212141614A49884204D13D217E
:103B5000484A103A91608CE046491831884205D1B4
:103B60004FF47461434A103A916082E04149303128
:103B7000884205D14FF474113E4A103A916078E0C2
:103B80003C494831884205D14FF07461394A103AB6
:103B900091606EE037496031884204D13649354A38
:103BA000103AD16065E033497831884204D1334915
:103BB000304A103AD1605CE02E499031884204D1FD
:103BC0002F492C4A103AD16053E02A49A831884243
:103BD00005D14FF03D51274A103AD16049E02949BB
:103BE000884204D13D21274A083A116041E0254925
:103BF0001831884205D14FF47461224A083A1160A5
:103C000037E020493031884205D14FF474111D4A04
:103C1000083A11602DE01B494831884205D14FF028
:103C20007461184A083A116023E0164960318842ED
:103C300004D11149134A121F11601AE01149783159
:103C4000884204D10D490F4A121F116011E00D493D
:103C50009031884204D10A490A4A121F116008E0D3
:103C60000849A831884204D14FF03D51054A121F3E
:103C700011607047106002403D000020400F00209E
:103C800000003D20106402400146486880B2704741
:103C900010B500220268134B1A40CC680B6823430E
:103CA0004C6923438C692343CC6923430C6A234327
:103CB0004C6A23438C6A23434C6B23438C6B234312
:103CC0001A430260426922F00702D1E90B34234310
:103CD0001A4342610B6943604B6883608B68C36021
:103CE00010BD00003F801CF001234FF4E1324FF47F
:103CF0007A71184608F0D8FDFEF74EFC024903A081
:103D00000EF000F800BFFEE7D73603080D0A0D0AD3
:103D10003D3D3D3D3D3D3D25733D3D3D3D25583DB2
:103D20003D3D3D3D0D0A0D0A000000002DE900500B
:103D30000121064800F0A3FC10B900200CF0BCF9EA
:103D4000012000F091F8BDE8009000000020024042
:103D50002DE900504FF4004000F08CF838B10A20F3
:103D60000AF0D8FA4FF40041044800F088FC4FF400
:103D7000004000F079F8BDE800900000001C02400F
:103D80002DE90050022000F075F878B109F088F8AC
:103D900007480168012007F0FDFE0021084607F0F2
:103DA000F9FE05F07FFF022000F05EF8BDE800900C
:103DB000C02119682DE900501848007803280AD15D
:103DC0000821174800F05BFC28B91648006810B1BC
:103DD00014480068804711480078012803D00F4834
:103DE0000078022815D108210F4800F048FC80B95E
:103DF0000A200AF08FFA08210B4800F040FC40B975
:103E0000642007F0BBFE0948006810B1074800684D
:103E10008047082000F028F8BDE8009020BE186810
:103E2000002002402C201968001C0240282019683C
:103E30002DE900500A200AF06DFA4021084800F0F0
:103E40001EFC40B9642007F099FE0648006810B1D6
:103E5000044800688047402000F006F8BDE8009064
:103E600000000240242019680149086070470000E2
:103E7000143C0140014600200022074B1B6803EA66
:103E80000102054B14331B680B4013B10AB101202A
:103E900000E0002070470000003C01400021234961
:103EA0008279002A3AD00A46126803689A430B4680
:103EB0001A600A1D126803689A430B1D1A60027982
:103EC00011440A6803681A430A60184A08321268E3
:103ED00003689A43154B08331A601A1D1268036869
:103EE0009A43124B0C331A604279102A0ED11A1FD2
:103EF000126803681A430D4B08331A601A1D1268C2
:103F000003681A43094B0C331A600DE007494279E4
:103F100011440A6803681A430A6005E002791144F3
:103F20000A6803689A430A6070470000003C014039
:103F300001490860704700000C3C024030B107495D
:103F4000096841F48061054A116005E00349096888
:103F500021F48061014A116070470000003C02407A
:103F600070B504460A460026082502B909E0012A70
:103F700001D1160205E0022A01D1160201E04FF438
:103F8000407600F099F80546082D28D115480068BC
:103F900020F4407013490860084600683043086008
:103FA0000846006820F0F80008600846006844F001
:103FB000020108430B4908600846006840F480305D
:103FC000086000F079F805460648006820F0020015
:103FD000044908600846006820F0F8000860284698
:103FE00070BD0000103C024008201049096801F42F
:103FF0008031B1F5803F01D1012015E00B490968FE
:1040000001F0100109B105200EE00849096801F02E
:10401000EF0109B1062007E00449096801F0020137
:1040200009B1072000E00820704700000C3C024066
:104030000348006840F000400149086070470000F4
:10404000103C024030B502460C46082500F034F81A
:104050000546082D19D10E48006820F440700C491F
:1040600008600846006840F4007008600846006870
:1040700040F001000860146000F01EF80546044896
:10408000006820F0010002490860284630BD0000A9
:10409000103C02400548006800F0004028B1044888
:1040A00002490C390860034808607047103C024020
:1040B00023016745AB89EFCD08B508200090FFF7D5
:1040C00093FF009002E0FFF78FFF00909DF8000043
:1040D0000128F8D09DF8000008BD000051B1820011
:1040E000A2F1C042126842F001038200A2F1C04274
:1040F000136009E08200A2F1C0421268034B1A402B
:104100008300A3F1C0431A6070470000FEFF0F0058
:10411000D0E901121143C268114302691143426997
:10412000114382691143C2691143026A1143426A11
:104130001143826A1143C26A1143026B1143026840
:104140009200A2F1C0421160816808290BD1016878
:104150008900A1F1C041096841F04002016889006D
:10416000A1F1C0410A60416B0968426B526841EAA3
:104170000211426B926841EA0221426B928941EA44
:104180000241426B128A41EA0251426B127D41EABE
:104190000261426B926911430268521C9200A2F1C3
:1041A000C0421160C16AB1F5804F1BD1816B0968B3
:1041B000826B526841EA0211826B926841EA0221E5
:1041C000826B128A41EA0251826B127D41EA0261DE
:1041D000826B9269114302689200A2F1C042C2F858
:1041E000041107E06FF0704201688900A1F1C0413D
:1041F000C1F804217047000018B5684600F0B8F90E
:10420000BDF80040BDF80230BF2C03D000201E498D
:10421000086018BD1D48038042F26A31581A8B426B
:1042200023D00BDCA3F50850A0F5A57088B10128B8
:104230000ED0102813D011281ED10FE0012813D062
:10424000022814D0032811D0B0F5836F14D100BF19
:1042500000BF4FF400100C49086011E000BF4FF49C
:104260008000094908600BE000BF00BF00BF4FF4A9
:1042700000000549086003E000200349086000BF12
:1042800000BF00BFC5E700005CBE186860BE1868CC
:1042900010B5FFF7B1FF00F081F90148006810BDCB
:1042A0005CBE186800B599B00121782005F070FF58
:1042B0000121084605F07CFF0C220021904800F007
:1042C000BBF90C2201218E4800F0B6F90C22042122
:1042D0008B4800F0B1F90C220521894800F0ACF9B7
:1042E0000C220821864800F0A7F90C2209218448F5
:1042F00000F0A2F90C220A21814800F09DF90C225D
:104300000B217F4800F098F90C2211467C4800F000
:1043100093F90C220D217A4800F08EF90C220E211F
:10432000774800F089F90C220F21754800F084F9D4
:1043300002208DF8080003208DF8090000208DF878
:104340000A008DF80B004FF63370019001A96C48FC
:1043500000F02AF90C2203216A4800F06DF90C22C2
:104360000421684800F068F90C220521654800F036
:1043700063F90C220721634800F05EF90C22082142
:10438000604800F059F90C2209215E4800F054F908
:104390000C220A215B4800F04FF90C220B215948EE
:1043A00000F04AF90C221146564800F045F90C225B
:1043B0000D21544800F040F90C220E21514800F024
:1043C0003BF90C220F214F4800F036F94FF6B87038
:1043D000019001A94B4800F0E7F80C2200214A485F
:1043E00000F02AF90C220121474800F025F90C229F
:1043F0000221454800F020F90C220321424800F038
:104400001BF90C220421404800F016F90C2205216A
:104410003D4800F011F90C2211463B4800F00CF920
:104420000C220D21384800F007F90C220E213648E5
:1044300000F002F90C220F21334800F0FDF84FF292
:104440003F00019001A9304800F0AEF80C22002195
:104450002E4800F0F1F80C2201212C4800F0ECF875
:104460000C220221294800F0E7F80C2203212748FA
:1044700000F0E2F80C220421244800F0DDF80C22C0
:104480000521224800F0D8F80C2209211F4800F02D
:10449000D3F840F23F20019001A91C4800F084F8B5
:1044A00006200390002004900A200590002006902A
:1044B00002200790002008904FF0805009900220C1
:1044C0000A9000200B9008200C9010200D900020E6
:1044D0000E901090119012904FF480501390002085
:1044E000149015900F90169003A8179018900AA892
:1044F000FFF70EFE01210220FFF7F0FD19B000BD0D
:10450000000C02400010024000140240001802405B
:1045100070B504460D4616460EB9012070BDFFF772
:10452000B7FE6119884201D20120F7E76A082146E7
:10453000304600F003F80020F0E7000010B5AA2391
:10454000094C23805523094C2380F0244FF0C843A5
:104550005C5206E04FF0C8435B5A20F8023B891CCE
:10456000521E002AF6D110BDAAAA00645455006458
:10457000AA21084A11805521074A11809021054A35
:1045800011804FF0C841098801804FF0C841498827
:1045900041807047AAAA006454550064F0204FF08F
:1045A000C841088000207047F0B50A46002100236A
:1045B000002400BF3DE0012505FA01F3156805EA76
:1045C00003049C4234D105684F000326BE40B54326
:1045D000056015794E00B5400668354305601579CC
:1045E000012D02D01579022D16D185684F000326C2
:1045F000BE40B543856055794E00B5408668354369
:104600008560456801268E40B543456045689679CA
:104610008E40B6B235434560C5684F000326BE40A4
:10462000B543C560D5794E00B540C6683543C56011
:10463000491C1029BFD3F0BDF0B5002300244D075D
:10464000ED0E02FA05F3CE1000F1200555F82650C4
:104650004E07F70E0F26BE40B543CF1000F12006DF
:1046600046F82750CE1000F1200555F8265045EAAF
:104670000304CE1000F1200545F82640F0BD0246A7
:10468000002013690B400BB1012000E000207047AF
:10469000418370470183704710B51748007801289F
:1046A0000ED116480BF0AEFE02234FF416524FF413
:1046B0007A71052008F0F8F81149042008F048FB49
:1046C0000D48007802280DD10C480BF09BFE022308
:1046D0004FF416524FF47A71052008F0E5F80320E4
:1046E000FEF79CF804480078032804D14FF41651D3
:1046F000042006F0BFFE10BD20BE18680050004028
:104700000547020810B50A48007801280ED10A2290
:10471000084909480DF046FA0848007830B107F01A
:104720002DFB0446214606A00DF0DCFB012010BD48
:1047300020BE1868F83D1A68082019680420196816
:104740000D0A436C65616E20425546462C25640D6A
:104750000A00000086B001234FF4E1324FF47A7171
:10476000184608F0A1F8FDF717FF4FF4FA6009F0BA
:10477000D1FD0020059068460490CDF80CE0784605
:1047800002901B491BA00DF0BDFA24A00DF0BAFA4F
:104790003B46324629462EA000940DF0B3FA33462C
:1047A0002A46214632A000970DF0ACFA53464A46FD
:1047B000414637A0CDF800B00DF0A4FA0298009061
:1047C0003BA0DDE9033205990DF09CFA40A00DF005
:1047D00099FA07F0F0F902230022032149A007F01B
:1047E00023FA4FF4FA6007F021F900BFFEE700005A
:1047F000743603083D3D3D3D3D3D3D3D3D3D3D3D28
:104800003D3D252D3136733D3D3D3D3D3D3D3D3DDD
:104810003D3D3D3D3D3D3D3D3D0D0A003D3D3D3D68
:104820003D3D3D3D3D3D3D3D3D3D3D3D3D3D3D44B1
:10483000756D705F5265673D3D3D3D3D3D3D3D3D84
:104840003D3D3D3D3D3D3D3D3D3D3D3D3D0D0A0038
:1048500052302D523320203A7C25303858202530D4
:104860003858202530385820253038587C0D0A001B
:1048700052342D523720203A7C25303858202530AC
:104880003858202530385820253038587C0D0A00FB
:1048900052382D523131203A7C253038582025307D
:1048A0003858202530385820253038587C0D0A00DB
:1048B0005231322D5231353A7C253038582025304E
:1048C0003858202530385820253038587C0D0A00BB
:1048D0003D3D3D3D3D3D3D3D3D3D3D3D3D3D3D3D08
:1048E0003D3D3D3D3D3D3D3D3D3D3D3D3D3D3D3DF8
:1048F0003D3D3D3D3D3D3D3D3D3D3D3D3D3D3D3DE8
:104900003D0D0A00C8EDBCFED2ECB3A300000000D0
:104910004CF6CC4001490860704700000030004070
:104920004AF6AA20014908607047000000300040A4
:10493000014948607047000000300040014988602C
:1049400070470000003000400149086070470000D7
:104950000030004010B52448007801280BD1012315
:104960004FF4E1324FF47A71042007F09DFF1F49A4
:10497000042008F0D1F91C48007802280BD101234B
:104980004FF4E1324FF47A71052007F08DFF18499A
:10499000052008F0C1F91448007801280FD1012141
:1049A00014480BF0BDFE002112480BF057FE012108
:1049B00010480BF047FE01210F4880F826100A48E6
:1049C000007802280FD101210C480BF0A9FE00212C
:1049D0000A480BF043FE012108480BF033FE012189
:1049E000054880F82E1010BD20BE186875270208F3
:1049F000B5280208004C0040204B196800500040C8
:104A000010B51448007801280AD113480BF0FAFCBD
:104A1000FFF7A0FF0120FDF761FE052009F07AFCF9
:104A20000C48007802280AD10C480BF0EBFCFFF789
:104A300091FF0120FDF7F2FE052009F06BFC05480F
:104A40000078032804D14FF4E131022006F012FD72
:104A500010BD000020BE1868004C0040005000400F
:104A600070B5044608222146D02006F091FE054686
:104A7000284670BD70B5044608222146D82006F0AD
:104A800087FE0546284670BD70B504461548007877
:104A900038B104EB8401144A02EB4110A021FCF769
:104AA000F0F91248007808B9A01CC4B244F0B00173
:104AB000002000F0D1FA6021002000F0CDFA102192
:104AC000002000F0C9FA0021084600F0C5FA0025D0
:104AD00004E0002000F0E2FA681CC5B2A02DF8DB6B
:104AE00070BD00009C211968F6691A689D2119683B
:104AF00070B5022400261948007800B9022618482B
:104B0000007848B14FF4C8611648FCF7BAF94FF481
:104B1000C8611548FCF7B5F91DE0A019C0B240F016
:104B2000B001002000F098FA6021002000F094FA13
:104B30001021002000F090FA0021084600F08CFAC5
:104B4000002504E0002000F0A9FA681CC5B2A02DE1
:104B5000F8DB601CC4B20A2CDFDB70BD9D21196834
:104B60009C211968B6631A68F6691A682DE9FF4F27
:104B700095B0884614461E46002014904FF0FF0959
:104B8000159D019000904FF0010BB8F1080F01DC6A
:104B9000A02C03DD012019B0BDE8F08F0220149095
:104BA0000AE01498404504D1A8F1010000F0FF0884
:104BB00005E01498801C149014980A28F1D900BFBD
:104BC000B8F1000F03D108F1010000F0FF080CB9A3
:104BD000601CC4B208F1020000F0FF08A8F1010057
:104BE00000F0FF08601EC4B2132C02DCB8F1090FFC
:104BF00001DD0120CFE72846FCF760F907460FB931
:104C00000120C8E7002008B14FF0010B06F01000AA
:104C100008B10120019006F0010010B100244FF00E
:104C2000010B06F0040020B114244FF0FF3BE819FB
:104C3000451E06F0020048B14FF0010B132F01D9B9
:104C4000002403E0C7F11400C0F3470406F040005D
:104C500038B14046FFF718FF08F10101C8B2FFF76D
:104C600013FF06F0800008B1FFF742FF381914283F
:104C700017D906F00F00042806D1142F01D91420EB
:104C800000E0384607460CE0132C08D128787E282F
:104C900003DD601EC4B2022703E0012701E0C4F176
:104CA0001407B3E028787E283CDC2878142839DD06
:104CB00007B9B0E07F1E06F00F00042806D0B9F156
:104CC000FF0F06D006F00F00042802D004EB0B0003
:104CD000C4B22878A0F1200A4FF0000918E001982A
:104CE000012809D14D4800EB0A1010F80900C04313
:104CF0000CA901F8090007E0484800EB0A1010F879
:104D000009000CA901F8090009F1010000F0FF09F0
:104D1000B9F1100FE3DB0CAA4146204609F042F935
:104D20005D4473E0287814286EDD012F06D806F064
:104D30000F00042800D16EE0002700E0BF1E06F03F
:104D40000F00042806D0B9F1FF0F06D006F00F00BF
:104D5000042802D004EB0B00C4B24FF0FE090BF1A3
:104D6000010098B9601EC4B22878A0F1A10A681E9B
:104D700005460078A138C0EB001101EB40100AEBAA
:104D800040002749096801EB401A10E02878A13853
:104D90005E2110FB01F003906D1C2878A138029071
:104DA000DDE9021008441E49096801EB401A0CAA0B
:104DB00020215046FFF7ACFB0198012817D10020B5
:104DC00000900BE00CA90098085CC043C1B204AA93
:104DD000009811540098401CC0B200900098202800
:104DE000F0DB04AA4146204609F0A8F904E00CAA29
:104DF0004146204609F0A2F906F00F00042801D030
:104E0000601CC4B25D4401E00020C4E6287810B103
:104E1000002F7FF447AF00BF0020BCE658300308E6
:104E2000A021196870B5002400261948007800B93F
:104E300002261848007848B14FF4C8611648FCF7BC
:104E400020F84FF4C8611548FCF71BF81DE0A019C5
:104E5000C0B240F0B001002000F0FEF86021002058
:104E600000F0FAF81021002000F0F6F800210846C2
:104E700000F0F2F8002504E0002000F00FF9681CB3
:104E8000C5B2A02DF8DB601CC4B20A2CDFDB70BDFC
:104E90009D2119689C211968B6631A68F6691A6819
:104EA0001CB50121032005F073F902208DF80500DF
:104EB00001208DF8040000208DF806008DF8070011
:104EC0004020009069460F48FFF76EFB4FF480705A
:104ED000009069460B48FFF767FB4FF400700090A5
:104EE00069460848FFF760FB2020009069460648A5
:104EF000FFF75AFB8020009069460348FFF754FBF8
:104F00001CBD0000000402400000024010B54FF438
:104F100000710748FFF7BCFB0A2009F010FA4FF4B4
:104F200000710348FFF7B6FB0A2009F008FA10BD2C
:104F30000004024010B5FFF7B3FFFFF7E7FFAB2116
:104F4000002000F089F80A2009F0F9F92D480078CE
:104F500058B1C021002000F07FF8142009F0EFF9CB
:104F6000A121002000F078F80AE0C821002000F01C
:104F700073F8142009F0E3F9A021002000F06CF888
:104F8000142009F0DCF9A621002000F065F81420B7
:104F900009F0D5F9F321002000F05EF8A3210020EC
:104FA00000F05AF8142009F0CAF94021002000F05E
:104FB00053F80021084600F04FF8142009F0BFF91B
:104FC000A321002000F048F8142009F0B8F92721A7
:104FD000002000F041F8142009F0B1F92F21002041
:104FE00000F03AF844F6206009F0A9F92B2181205D
:104FF00000F032F8AF21002000F02EF8FFF712FF8A
:1050000010BD00009D21196870B5044600251DE003
:1050100004F0800020B180210E48FFF73BFB03E045
:1050200080210C48FFF734FB012009F088F920218A
:105030000848FFF72DFB012009F081F920210548E0
:10504000FFF728FB6006040E681CC5B2082DDFDBE5
:1050500070BD00000000024070B505460C464021BE
:105060000D48FFF715FB55B14FF480710A48FFF763
:105070000FFB2846FFF7C8FF012009F060F94FF445
:1050800080710548FFF704FB2046FFF7BDFF402174
:105090000148FFF7FFFA70BD0004024010B5044656
:1050A00040210848FFF7F4FA4FF480710548FFF7F4
:1050B000F1FA2046FFF7A8FF40210248FFF7EAFA7D
:1050C00010BD00000004024010B540210148FFF768
:1050D000E1FA10BD0014024010B540210148FFF76D
:1050E000D7FA10BD0014024010B50446012C02D1BD
:1050F000FFF7EAFF01E0FFF7EFFF10BD1CB58020CE
:10510000009001208DF8040000208DF806008DF835
:10511000050069460148FFF747FA1CBD001402402C
:1051200070B504460D461646052E3ED2DFE806F061
:10513000031415162900042C0BDC611E4FF4C04229
:1051400002EB41211B4A525D114388B200F0F8F88E
:1051500001E0012070BD2AE000BF00BF042C0DDC7F
:10516000611E4FF4C04202EB4121124A525D1143CD
:1051700089B241F0800000F0E3F801E00120E9E7A6
:1051800015E0042C0BDC611E4FF4C04202EB412100
:10519000084A525D114388B200F0D2F801E00120C4
:1051A000D8E7012000F042F801E00120D2E700BF7B
:1051B0000020CFE7A72B030810B5012000F0B6F8B8
:1051C0000120FFF791FF0A2009F0B9F8002000F054
:1051D000ADF80A2009F0B3F80020FFF785FF0A2098
:1051E00009F0ADF810BD10B5002000F09FF80A20BE
:1051F00009F0A5F80120FFF777FF0A2009F09FF8D2
:10520000012000F093F80A2009F099F810BD10B5BC
:10521000012000F079F800F04FF8FFF76FFF14203D
:1052200009F08DF8C82009F08AF810BD70B5054660
:1052300035B1012D09D0022D19D0032D37D128E029
:1052400044F6010000F07CF833E000240CE04FF459
:10525000C04141EA442188B200F072F844F60100EE
:1052600000F06EF8601CC4B2042CF0DB21E00024D6
:105270000CE04FF4C04141EA442188B200F060F8EC
:1052800044F6010000F05CF8601CC4B2042CF0DBB2
:105290000FE0002408E04FF4C04141EA442188B205
:1052A00000F04EF8601CC4B2042CF4DB01E00120D5
:1052B00070BD00BF0020FBE71CB50121202004F0D9
:1052C00067FF4020009001208DF8040000208DF839
:1052D00006008DF8050069460A48FFF765F90121C7
:1052E000202004F055FF8020009001208DF804005C
:1052F00000208DF806008DF8050069460148FFF78B
:1053000053F91CBD001402407047000010B5802105
:105310000148FFF7BFF910BD0014024010B580210D
:105320000148FFF7B5F910BD0014024010B504465E
:10533000012C02D1FFF7EAFF01E0FFF7EFFF10BDFC
:1053400010B50446FFF738FF201200F006F8E0B26F
:1053500000F003F8FFF747FF10BD70B504460025C5
:1053600019E004F0800018B10120FFF7DFFF02E030
:105370000020FFF7DBFF0120FFF7B6FE6006040EFA
:105380000A2008F0DCFF0020FFF7AEFE0A2008F03C
:10539000D6FF681CC5B2082DE3DB0A2008F0CFFF5A
:1053A0000120FFF7C3FF0A2008F0C9FF0120FFF723
:1053B0009BFE0A2008F0C3FF0020FFF795FE0A209D
:1053C00008F0BDFF70BD000070B504460D46042C0A
:1053D00001DC012D01DD012070BD002D50D1052C17
:1053E0004CD2DFE804F0031B27333F004FF40041A9
:1053F000C748FFF74DF94FF48051C648FFF748F909
:105400004FF40071C348FFF743F94FF48071C0486F
:10541000FFF73EF90F20C049087030E04FF400411B
:10542000BB48FFF735F9BC48007840F00100BA49A5
:10543000087024E04FF48051B648FFF729F9B648C8
:10544000007840F00200B449087018E04FF4007191
:10545000B048FFF71DF9B048007840F00400AE49AD
:1054600008700CE04FF48071A948FFF711F9AA48C1
:10547000007840F00800A849087000E000BF44E14F
:10548000012D53D1052C4FD2DFE804F0031E2A363C
:1054900042004FF400419E48FFF7FCF84FF4805162
:1054A0009C48FFF7F7F84FF400719A48FFF7F2F8BD
:1054B0004FF480719648FFF7EDF89748007800F0B8
:1054C000F0009549087030E04FF400419048FFF734
:1054D000E1F89148007800F0FE008F49087024E060
:1054E0004FF480518B48FFF7D5F88B48007800F0D7
:1054F000FD008949087018E04FF400718548FFF7F6
:10550000C9F88548007800F0FB00834908700CE07A
:105510004FF480717E48FFF7BDF87F48007800F0B7
:10552000F7007D49087000E000BFEEE0052C75D261
:10553000DFE804F0037592AFCC007748007800F004
:10554000010058B14FF400417148FFF7A3F87248C9
:10555000007800F0FE00704908700AE04FF4004146
:105560006B48FFF795F86C48007840F001006A49F5
:1055700008706948007800F0020058B14FF480517B
:105580006448FFF787F86448007800F0FD0062493E
:1055900008700AE04FF480515E48FFF779F85E48E2
:1055A000007840F002005C4908705B48007800F029
:1055B000020058B14FF480515648FFF76BF8564837
:1055C000007800F0FD00544908700AE04FF4805163
:1055D0005048FFF75DF85048007840F002004E490F
:1055E00008704D48007800F0080058B14FF4807101
:1055F0004748FFF74FF84848007800F0F700464961
:1056000008700AE04FF480714148FFF741F84248C2
:10561000007840F008004049087075E073E03E48AB
:10562000007800F0010058B14FF400413848FFF70E
:1056300031F83948007800F0FE00374908700AE078
:105640004FF400413248FFF723F83348007840F028
:1056500001003149087057E02F48007800F002003F
:1056600058B14FF480512B48FFF714F82A480078BE
:1056700000F0FD00284908700AE04FF480512548E9
:10568000FFF706F82448007840F00200224908702D
:105690003AE02148007800F0040058B14FF400715E
:1056A0001C48FEF7F7FF1C48007800F0FB001A4981
:1056B00008700AE04FF400711648FEF7E9FF16483B
:1056C000007840F00400144908701DE0124800788A
:1056D00000F0080058B14FF480710D48FEF7DAFF72
:1056E0000D48007800F0F7000B4908700AE04FF40D
:1056F00080710748FEF7CCFF0748007840F00800AB
:105700000549087000E000BF00BF002064E600000B
:1057100000180240001C0240B0BE18681CB50121F0
:10572000402004F035FD4FF40040009001208DF83A
:10573000040000208DF8060001208DF807000020ED
:105740008DF8050069461448FEF72EFF01218020E0
:1057500004F01EFD4FF48050009069460F48FEF79C
:1057600023FF0121802004F013FD4FF4007000900E
:1057700069460A48FEF718FF0121402004F008FDA1
:105780004FF48070009069460348FEF70DFF00213A
:105790000846FFF719FE1CBD00180240001C02401D
:1057A00001B582B0002001906FE0019800EB80000D
:1057B0004F4901EB8000C06800B963E0019800EB3D
:1057C00080004B4901EB800001690298401A00906B
:1057D000019800EB8000464911F82000012824D1EF
:1057E000019800EB800001EB800041680098814245
:1057F0001BD10199491CC8B20021FFF7E5FD00212A
:10580000019800EB80003A4A02F82010019800EB62
:105810008000114601EB8000C068401E019901EB39
:10582000810102EB8101C8602BE0019800EB800050
:105830002F4911F8200020BB019800EB800001EBFC
:1058400080004168019800EB8000294A02EB80004B
:10585000806801440098814213D10199491CC8B263
:105860000121FFF7B1FD0121019800EB8000204AE2
:1058700002F82010DDE9011001EB810102EB81014A
:10588000086100BF0198401C0190019804288CDB3E
:105890001848C06800B90EBD164801690298401A40
:1058A00000901448007801280ED1124841680098F1
:1058B000814209D1FCF770FE00200E4908700846AD
:1058C000C068401EC86011E00A48007870B90948F5
:1058D00040680849896801440098814206D1FCF774
:1058E00055FE0120034908700298086100BFD2E705
:1058F000984B1968FC4B196838B5002400206D4995
:10590000486100F0D9F800F0A7FA0546C5F3830412
:10591000684600F07FFA9DF80000D5280CD1654953
:1059200008604FF480704860000188600846046198
:105930004FF48070C860B4E09DF80000C82824D1FE
:105940009DF80200182802D019281BD10CE018205D
:10595000584908604FF480504860886008460461E8
:105960004FF48070C8600FE01920524908604FF46E
:105970000050486040108860084604614FF4807011
:10598000C86001E0022038BD8BE09DF80000EF28E0
:105990004ED19DF802001338072846D2DFE800F008
:1059A0000445111E2B4538001320424908604FF46E
:1059B00080704860000188600011C860084604617A
:1059C00035E015203B4908604FF400704860C00086
:1059D00088600011C8600846046128E01620354937
:1059E00008604FF480604860800088600011C860E3
:1059F000084604611BE017202E4908604FF4006040
:105A00004860400088600011C860084604610EE0EC
:105A10001920284908604FF4005048604010886001
:105A20000011C8600846046101E00220ABE738E0DD
:105A30009DF80000C22832D19DF80200152804D03C
:105A400016280FD0172827D119E01520194908600A
:105A50004FF400704860C00088600011C8600846BC
:105A600004611BE01620134908604FF48060486011
:105A7000800088600011C860084604610EE01720AD
:105A80000C4908604FF400604860400088600011D5
:105A9000C8600846046101E0022074E701E00220CA
:105AA00071E70448406803498968484301494861EF
:105AB000002068E7104C19681CB5D048007803280E
:105AC0007ED10121402004F063FB4FF48040009020
:105AD00001208DF8040000208DF8060001208DF8CB
