:020000040802F0
:1000000000D000204952020865EC02086DAB0208DE
:1000100099DF02084573020801D3030800000000BD
:10002000000000000000000000000000654203081E
:10003000B98E020800000000451703083D7B030845
:1000400031530208315302083153020815330308B3
:1000500031530208411E0308FD8E0208518F020829
:1000600031530208858F02083153020831530208C8
:100070003153020831530208315302083153020848
:100080003153020831530208315302083153020838
:10009000315302083153020831530208019002081B
:1000A0003153020821A803083153020831530208D2
:1000B0003153020859A8030895A8030831530208D0
:1000C00031530208315302083153020831530208F8
:1000D0003153020881B3030831530208DDB303082A
:1000E000218F0208E121030831530208315302082D
:1000F000D1A80308315302083153020831530208D2
:1001000031530208315302083153020831530208B7
:1001100005B3030849B303083153020831530208F9
:100120003153020831530208315302083153020897
:100130003153020831530208315302083153020887
:10014000315302083153020831530208DDED020831
:100150003153020831530208315302083153020867
:100160003153020831530208315302083153020857
:100170003153020831530208315302083153020847
:100180003153020831530208DFF80CD005F028F98A
:10019000004800476DE5030800D0002040BA7047D2
:1001A000C0BA704762B672B690FAA0F07047401EAF
:1001B000FDD1704701202D490870704710B501210D
:1001C0002B4809F00DFF10BD10B50121284809F09A
:1001D00005FF10BD10B54021264809F001FF10BDF4
:1001E00010B54021234809F0F9FE10BD1CB50121CE
:1001F000042011F031FD012000908DF80400002052
:100200008DF806008DF805006946194809F072FE60
:10021000FFF7D4FF1CBD1CB50121802011F01CFD8F
:100220004020009001208DF8040000208DF8060089
:100230008DF8050069460F4809F05CFEFFF7CAFF1C
:100240001CBD10B5FFF7B6FF14F028FB0A480B4998
:10025000086010BD10B504460448007808B9FF20B6
:1002600010BD204614F07CFBFAE7000024BF18689C
:1002700000080240001C0240C84A1A6834BF1868CF
:1002800010B504460D22FC49204604F0A1FB10BD28
:1002900010B50FF02BFBF948F9490860F9480078D0
:1002A00018B10321402011F037F80FF0F9FD0128B3
:1002B00005D00FF0F5FD012801D0012010BD002070
:1002C000FCE770B506460D460FF094F80446112C75
:1002D00009D0122C07D0132C05D0142C03D0152CC8
:1002E00001D0012070BD28460FF09AF8012801D1F5
:1002F0000020F7E70120F5E730B59BB004460D4636
:1003000001A902A80FF0CEFE012802D100201BB0E7
:1003100030BD0120FBE770B59EB006460C46154681
:1003200001A905A80FF0BEFE012822D102A80FF0F6
:1003300077F801281BD19DF809002178884214D153
:100340009DF80A00617888420FD19DF80B00A178D2
:1003500088420AD19DF80C00E178884205D10FF05F
:1003600043F8287000201EB070BD0320FBE7022078
:10037000F9E70120F7E72DE9F04391B005468846FB
:1003800091461E46189FC0A00188ADF824108078C1
:100390008DF8260000208DF8270006208DF8280013
:1003A0003868CDF82900B888ADF82D006B4601AA51
:1003B0000B2109A80EF034FD012833D1B3A0016848
:1003C000099100798DF8280001208DF8290000207E
:1003D0008DF82A008DF82B608DF82C508DF82D00AB
:1003E000A848007808B10FF06DFD6B4601AA0A21FC
:1003F00009A80EF015FD0446012C0FD1BDF8000030
:10040000801E01A9085C902808D1BDF80000401E9C
:10041000085C18B9002011B0BDE8F083012C01D1AF
:100420000220F8E70120F6E770B504460D46D11E1C
:10043000CE1701EB9676C6F38700602C11D100EB46
:10044000800101EBC001934E31441E6841F8016FF9
:100450009E888E8000EB800101EBC0018D4E7254AE
:1004600010E000EB800101EBC0018A4E31441E68B0
:1004700041F8076F9E888E8000EB800101EBC00180
:10048000844E725470BD2DE9F84304460F469046E1
:100490001D46E81EC11700EB9171C1F38706602C61
:1004A0000FD106EB860000EBC6007A490844401CD9
:1004B0002B460022114600902046FFF75CFFBDE866
:1004C000F88306EB860000EBC60072490844C01DA5
:1004D0002B460022114600902046FFF74CFFEEE726
:1004E00070B592B004460D466BA00188ADF8281097
:1004F00080788DF82A008DF82B4010208DF82C0084
:1005000001AB02AA05210AA80EF08AFC0646012EBC
:1005100012D1BDF80400801E02A9085C90280BD1FE
:10052000BDF80400401E085C30B91022284604F0D3
:100530004FFA002012B070BD012E01D10220F9E760
:100540000120F7E770B592B004460E4653A001882B
:10055000ADF8281080788DF82A008DF82B401020F7
:100560008DF82C00102231460DF12D0004F030FAE8
:1005700001AB02AA15210AA80EF052FC0546012D76
:100580000ED1BDF80400801E02A9085C902807D196
:10059000BDF80400401E085C10B9002012B070BD08
:1005A000012D01D10220F9E70120F7E730B589B02C
:1005B000044601A92046FFF793FF054615B1012027
:1005C00009B030BD9DF804009DF80810884201D1A3
:1005D000012000E0002080F0FF0018B39DF8050026
:1005E0009DF80910884201D1012000E0002080F030
:1005F000FF00B8B19DF806009DF80A10884201D1AD
:10060000012000E0002080F0FF0058B19DF80700B5
:100610009DF80B10884201D1012000E0002080F0FD
:10062000FF0008B90220CBE79DF804009DF80C10EC
:10063000884211D19DF805009DF80D1088420BD11C
:100640009DF806009DF80E10884205D19DF8070020
:100650009DF80F10884201D00220B1E709480078C8
:1006600090BB9DF81000A0422CD19DF81100A04233
:1006700016D1012015E0000039BF1868C84A1A6871
:1006800034BF186838BF1868FF820000FF8600007A
:100690000500000046BF1868FFB00000FFD600004C
:1006A000002080F0FF0068B19DF81200A04209D13F
:1006B0009DF81300A04201D1012000E0002080F04D
:1006C000FF0008B902207BE7FFE7002078E770B55C
:1006D00092B005460C4600200190E0B28DF804006F
:1006E000200A8DF80500200C8DF80600200E8DF8EC
:1006F0000700F9A00188ADF8281080788DF82A004D
:100700008DF82B5005208DF82C0000208DF82D0041
:100710000198CDF82E006B4602AA0A210AA80EF015
:100720007FFB0646012E0ED1BDF80000801E02A9F7
:10073000085C902807D1BDF80000401E085C10B985
:10074000002012B070BD012E01D10220F9E7012076
:10075000F7E770B592B005460E462846FFF726FF2C
:10076000044614B1012012B070BDDCA00188ADF8C0
:10077000281080788DF82A008DF82B5004208DF8F1
:100780002C0001AB02AA0A210AA80EF049FB04467C
:10079000012C1CD1BDF80400801E02A9085C902821
:1007A00015D1BDF80400401E085C80B99DF8080012
:1007B0009DF8091000EB01209DF80A1000EB0140A4
:1007C0009DF80B1000EB016030600020CBE7012C9E
:1007D00001D10220C7E70320C5E770B592B00546F6
:1007E0000E4602A92846FFF77BFE044614B10120FD
:1007F00012B070BD9DF808009DF80C10884201D120
:10080000012000E0002080F0FF0018B39DF80900EF
:100810009DF80D10884201D1012000E0002080F0F9
:10082000FF00B8B19DF80A009DF80E10884201D172
:10083000012000E0002080F0FF0058B19DF80B007F
:100840009DF80F10884201D1012000E0002080F0C7
:10085000FF0008B90120CBE79DF808009DF81010B3
:10086000884211D19DF809009DF8111088420BD1E2
:100870009DF80A009DF81210884205D19DF80B00E2
:100880009DF81310884201D00120B1E793A00188A0
:10089000ADF8281080788DF82A008DF82B500420B0
:1008A0008DF82C0001AB02AA0A210AA80EF0B8FAB2
:1008B0000446012C1CD1BDF80400801E02A9085C6E
:1008C000902815D1BDF80400401E085C80B99DF841
:1008D00008009DF8091000EB01209DF80A1000EBBC
:1008E00001409DF80B1000EB0160306000207FE7B5
:1008F000012C01D102207BE7032079E770B592B08B
:1009000006460C46002001903046FFF74FFE054694
:1009100015B1012012B070BDE0B28DF80400200ABC
:100920008DF80500200C8DF80600200E8DF80700CC
:1009300069A00188ADF8281080788DF82A008DF81C
:100940002B6005208DF82C0001208DF82D000198DA
:10095000CDF82E006B4602AA0A210AA80EF060FA12
:100960000546012D0DD1BDF80000801E02A9085CCE
:10097000902806D1BDF80000401E085C08B9002090
:10098000C8E7012D01D10220C4E70120C2E770B5FC
:1009900092B006460C46002001903046FFF706FE56
:1009A000054615B1012012B070BDE0B28DF804000B
:1009B000200A8DF80500200C8DF80600200E8DF819
:1009C000070045A00188ADF8281080788DF82A002E
:1009D0008DF82B6005208DF82C0002208DF82D005D
:1009E0000198CDF82E006B4602AA0A210AA80EF043
:1009F00017FA0546012D0DD1BDF80000801E02A991
:100A0000085C902806D1BDF80000401E085C08B9BB
:100A10000020C8E7012D01D10220C4E70120C2E770
:100A200070B592B006460C460020019002A93046EF
:100A3000FFF756FD054615B1012012B070BD9DF8B7
:100A400008009DF80C10884201D1012000E0002030
:100A500080F0FF0018B39DF809009DF80D10884242
:100A600001D1012000E0002080F0FF00B8B19DF826
:100A70000A009DF80E10884201D1012000E00020FC
:100A800080F0FF0058B19DF80B009DF80F108842D0
:100A900001D1012000E0002080F0FF0008B9012012
:100AA000CBE79DF808009DF81010884211D19DF801
:100AB00009009DF8111088420BD19DF80A009DF89D
:100AC0001210884205D19DF80B009DF81310884242
:100AD00006D00120B1E70000FFD70000FFB1000001
:100AE000E0B28DF80400200A8DF80500200C8DF886
:100AF0000600200E8DF80700AFF224000188ADF843
:100B0000281080788DF82A008DF82B6005208DF84C
:100B10002C0002208DF82D000198CDF82E006B4698
:100B200002AA0A210AA80EF07BF90546012D0DD173
:100B3000BDF80000801E02A9085C902806D1BDF80F
:100B40000000401E085C08B9002076E7012D01D1A5
:100B5000022072E7012070E770B592B005460E469C
:100B60002846FFF723FD044614B1012012B070BDE2
:100B7000AFF29C000088ADF8280000208DF82A0014
:100B80008DF82B5003208DF82C008DF82D000020BF
:100B90008DF82E008DF82F6001AB02AA08210AA85B
:100BA0000EF03EF90446012C0DD1BDF80400801E64
:100BB00002A9085C902806D1BDF80400401E085C1C
:100BC00008B90020D2E7012C01D10220CEE7012094
:100BD000CCE770B592B005460E4602A92846FFF74D
:100BE0007FFC044614B1012012B070BD9DF80800CE
:100BF0009DF80C10884201D1012000E0002080F017
:100C0000FF0018B39DF809009DF80D10884201D12E
:100C1000012000E0002080F0FF00B8B19DF80A003C
:100C20009DF80E10884201D1012000E0002080F0E4
:100C3000FF0058B19DF80B009DF80F10884201D1BC
:100C4000012000E0002080F0FF0008B90120CBE780
:100C50009DF808009DF81010884211D19DF80900F8
:100C60009DF8111088420BD19DF80A009DF81210D2
:100C7000884205D19DF80B009DF81310884201D0E1
:100C80000120B1E7AFF2B0100088ADF828000020D5
:100C90008DF82A008DF82B5003208DF82C008DF84C
:100CA0002D0000208DF82E008DF82F6001AB02AAD8
:100CB00008210AA80EF0B4F80446012C0DD1BDF8A5
:100CC0000400801E02A9085C902806D1BDF804002B
:100CD000401E085C08B9002086E7012C01D10220E3
:100CE00082E7012080E72DE9F0418EB007460C46EF
:100CF0004FF04008AFF260600188ADF818108078BE
:100D00008DF81A008DF81B700EF074FB152842D177
:100D100000200190029003900490002532E0AFF291
:100D200088600188ADF8181080788DF81A0078195D
:100D300090FBF8F108FB1100C0B28DF81B000420F5
:100D40008DF81C0005AB2246052106A80EF068F8B8
:100D50000646012E10D1BDF81400801E205C90289C
:100D60000AD1BDF81400401E205C28B901A800EB90
:100D700085002168016003E000200EB0BDE8F0812D
:100D8000681CC5B2012DCADB102201A9204603F060
:100D90001FFE1020F1E710208DF81C0005AB224645
:100DA000052106A80EF03CF80646012E0FD1BDF82D
:100DB0001400801E205C902809D1BDF81400401E4C
:100DC000205C20B9BDF81400801EC0B2D5E7002019
:100DD000D3E770B58AB006460C46AFF24070018882
:100DE000ADF8081080788DF80A008DF80B600EF0D1
:100DF00001FB152803D104208DF80C0002E010201F
:100E00008DF80C009DF80C2021460DF10D0003F02B
:100E1000DFFD9DF80C00411D01AB224602A80DF03C
:100E2000FFFF0546012D0DD1BDF80400801E205C9A
:100E3000902807D1BDF80400401E205C10B90020A6
:100E40000AB070BD012D01D10220F9E70120F7E7BA
:100E50000120F9490870704710B50446062C00D2ED
:100E60000624A01F03F000FA03F038FA10BD10B5F5
:100E700003F040FA10BD10B50446062C00D206243B
:100E8000A01F03F0F9F810BD10B503F031F910BD43
:100E900010B503F033F910BD10B503F036F910BDED
:100EA00010B50446204603F04DF810BD10B50446B9
:100EB0004FF47A7104FB01F003F044F810BD10B553
:100EC000DE4800684069062803D20820DB4909682B
:100ED0004861DA4909684969881F03F033F800203E
:100EE00010BD10B504460CB9002010BDD3480068F1
:100EF000007A182804D0D1480068007A962807D1D3
:100F0000CE490968496901FB04F003F01BF80FE0C2
:100F1000CA4800684069062803D20820C749096802
:100F20004861C649096849696143881F03F00AF8A6
:100F30000020DAE710B5C1480068007A182804D00C
:100F4000BE480068007A962805D1BC490968C8697E
:100F500002F0F8FF0EE0B9480068C069062803D225
:100F60000820B6490968C861B4490968C969881F79
:100F700002F0E8FF002010BD01460020002209E039
:100F80004306180E01F001030BB940F001004910AF
:100F9000531CDAB2082AF3DB704710B5044620462A
:100FA00003F019FB10BD10B50446B4F5614F24D011
:100FB0000DDCB4F5165F14D0B4F5964F14D0B4F52B
:100FC000164F14D0A4F55940F838F8B912E09C48EF
:100FD0002044A8B1B0F5616F14D099490844A8B96C
:100FE00012E04FF4FC5414E043F6017411E047F6AC
:100FF00002640EE04BF603240BE045F2EB4408E0FC
:10100000904C06E0904C04E0904C02E04FF4FC540D
:1010100000BF00BF204603F0D3FA10BD10B5044650
:10102000182C1DD006DC112C0BD0122C0ED0132C3A
:1010300029D110E0942C18D0952C1BD0962C22D1BD
:101040001DE04FF41650FFF7AEFF21E04FF496403D
:10105000FFF7A9FF1CE04FF41640FFF7A4FF17E0CD
:101060004FF4E130FFF79FFF12E04DF6F810FFF765
:101070009AFF0DE072484042FFF795FF08E0744880
:10108000FFF791FF04E04FF41650FFF78CFF00BF0D
:1010900000BF10BD7047704710B50446A01E05285C
:1010A00059D2DFE800F0031425364700012003F091
:1010B00037F91021674808F091FF2021654808F0B2
:1010C0008DFF4021634808F089FF002010BD0120FA
:1010D00003F026F910215F4808F082FF20215D48C7
:1010E00008F07CFF40215B4808F078FF0020EDE726
:1010F000012003F015F91021564808F06FFF202158
:10110000544808F06DFF4021524808F067FF002066
:10111000DCE7012003F004F910214E4808F060FFDD
:1011200020214C4808F05CFF40214A4808F056FF57
:101130000020CBE7012003F0F3F81021454808F028
:101140004DFF2021434808F049FF4021414808F065
:1011500047FF0020BAE70120B8E770B505460C4606
:10116000A81E052846D2DFE800F0030F1D2937002E
:1011700024B18021384808F033FF03E0802136484D
:1011800008F02CFF002070BD2CB14FF48061324874
:1011900008F026FF04E04FF480612F4808F01EFF9E
:1011A0000020F0E724B104212B4808F019FF03E0E8
:1011B0000421294808F012FF0020E4E72CB14FF485
:1011C0000051264808F00CFF04E04FF4005123487A
:1011D00008F004FF0020D6E72CB14FF480712048BE
:1011E00008F0FEFE04E04FF480711D4808F0F6FEA2
:1011F0000020C8E71020C6E770B505460C46A81EBB
:1012000005286DD2DFE800F003585D62670044B93D
:101210008021144808F0E2FE0121134808F0E0FEA6
:1012200037E0012C22D180210E4808F0D7FE0121A1
:101230000D4808F0D3FE2CE02EC0186818C01868BE
:10124000104CFEFFA0860100067A01006CDC020053
:10125000E067030000200240001C0240000802403A
:10126000001402400018024000040240022C08D181
:101270008021FC4808F0B4FE0121FB4808F0B0FED4
:1012800007E08021F74808F0ABFE0121F64808F09E
:10129000A5FE0821F54808F0A3FE3220FFF700FE66
:1012A0000821F24808F09AFE0A20FFF7F9FD012014
:1012B000EF494871002070BD0120EE4948710020BF
:1012C000F9E70120EC4948710020F4E70120EB49DF
:1012D00048710020EFE70120E94948710020EAE762
:1012E0001020E8E70146881E05280ED2DFE800F04E
:1012F000030507090B00002070470020FCE70020D1
:10130000FAE70020F8E70020F6E71020F4E70146AE
:10131000881E05280ED2DFE800F0030507090B0040
:10132000002070470020FCE70020FAE70020F8E7E3
:101330000020F6E71020F4E70146881E05280ED2AB
:10134000DFE800F0030507090B00002070470020CC
:10135000FCE70020FAE70020F8E70020F6E710207D
:10136000F4E70146881E05281DD2DFE800F00308D7
:101370000D121700E220BE4A107100207047E220D3
:10138000BC4A10710020F9E7E220BB4A107100202E
:10139000F4E7E220B94A10710020EFE7E220B84AF2
:1013A00010710020EAE71020E8E710B50446A01EFF
:1013B00005287DD2DFE800F0032E5986B100AA206F
:1013C000AB4908700220487086200871002088719F
:1013D000022088700120C87100204872202081F806
:1013E0002400FE21A24880F82510002180F830104A
:1013F000402180F83210002180F8311080F833103D
:101400004021383003F0FDFA0021994880F8781027
:10141000002010BDAA20974908700320487086203C
:10142000087100208871032088700120C871002095
:101430004872202081F82400FE218E4880F8251073
:10144000002180F83010402180F83210002180F80F
:10145000311080F833104021383003F0D2FA0021E7
:10146000844880F878100020D3E7AA2082490870C9
:10147000042048708620087100208871042088703C
:101480000120C87100204872202081F82400FE212C
:10149000794880F82510002180F83010402180F82C
:1014A0003210002180F8311080F83310402100E024
:1014B0005EE0383003F0A5FA00216F4880F878101C
:1014C0000020A6E7AA206D490870052048708620F4
:1014D000087100208871052088700120C8710020E3
:1014E0004872202081F82400FE21644880F82510ED
:1014F000002180F83010402180F83210002180F85F
:10150000311080F833104021383003F07AFA00218E
:101510005A4880F8781000207BE7AA2058490870C4
:101520000620487086200871002088710620887087
:101530000120C87100204872202081F82400FE217B
:101540004F4880F82510002180F83010402180F8A5
:101550003210002180F8311080F8331040213830EB
:1015600003F04FFA0021464880F87810002050E739
:1015700010204EE738B54FF4805003F018F841487A
:1015800000684069C0EB00126946012003F067F96A
:1015900004460CB1F52C01D1212038BD0020FCE718
:1015A00010B53848006820B13648006880780828AF
:1015B00001DB102010BD4FF4805002F0F8FF43F61D
:1015C000FC423149012003F04AF904460CB90020DD
:1015D000F0E72046EEE710B50446A01E052864D2C9
:1015E000DFE800F003122130540000212046FFF70D
:1015F000B4FD2046FFF78BFE2046FFF773FE032065
:101600001B494871002010BD00212046FFF7A5FDB1
:101610002046FFF77CFE2046FFF764FE03201549B5
:1016200048710020EFE700212046FFF796FD204695
:10163000FFF76DFE2046FFF755FE03200E49487167
:101640000020E0E700212046FFF787FD2046FFF756
:101650005EFE2046FFF746FE032008494871002041
:10166000D1E70000001802400004024000000240E0
:10167000684C1A68F04C1A68784D1A68004E1A685F
:10168000884E1A6818C0186824C0186800212046BF
:10169000FFF763FD2046FFF73AFE2046FFF722FEE4
:1016A0000320FC4948710020ADE71020ABE770B57E
:1016B000F948006808B9102070BDF848007848B9AA
:1016C000F5480068C068F44909684969032202FBCB
:1016D000010502E0F0480068856A4FF4805002F08E
:1016E00066FFED480068007A962804D0EA48006852
:1016F000007A182808D1E849096888792A46E84913
:1017000003F0E5F8044607E0E349096888792A46CA
:10171000E34903F0A4F804465CB9DF480068C079E7
:1017200028B9DF480078FFF727FCDD490870002062
:10173000C2E7B62C01D1B620BEE7592C04D1D64958
:1017400009684878FFF747FF5920B5E710B5044608
:10175000D448007828B10020D24908700320FFF750
:10176000C0FBCD48006808B9102010BDCA490968FF
:10177000487AFFF7B6FBC8480068C07918B9204618
:10178000FFF7FAFB04464FF4405002F010FFC24846
:101790000068007A962804D0BF480068007A1828AC
:1017A0000AD1BD4909684A69BB4909688879214657
:1017B00003F043F80020D8E7B74909684A69B649F9
:1017C00009688879214603F02FF808B90020CCE792
:1017D0000120CAE710B50446AF48006808B91020D8
:1017E00010BDAD490968487AFFF77BFBAA4800683D
:1017F000C07918B92046FFF7BFFB04464FF44050AC
:1018000002F0D5FEA4480068007A96280AD1A249C1
:1018100009684A69A04909688879214603F00DF8EA
:101820000020DDE79C4909684A699B490968887975
:10183000214603F00BF808B90020D1E70120CFE7DB
:101840002DE9F05F044602F0B7FEFFF7A9FE05465A
:1018500002F0AEFE15B11420BDE8F09F4FF0000A73
:101860008F4800783B2808D1002002F09AFE012022
:10187000E0713B2084F838000EE0894800780328A6
:1018800008D1012002F08DFE0020E0713F2084F895
:10189000380001E01520DFE745F2F051606900FBF8
:1018A00001FB5846FFF7D8FA01207F4908707F49AD
:1018B0000870FFF7FCFE05460DB12846CCE77848D6
:1018C00007780178392001557548007800F00F0934
:1018D00002264FF0010800BFFFF7C9FA08B9FD2042
:1018E000BAE707F0100090B1FFF7E1FE05460DB131
:1018F0002846B1E76A4802783046711CCEB204F13E
:1019000038010A54FFF7B3FA08B9FD20A4E707F03D
:10191000200090B1FFF7CBFE05460DB128469BE7AE
:101920005F4802783046711CCEB204F138010A5487
:10193000FFF79DFA08B9FD208EE707F0400090B14F
:10194000FFF7B5FE05460DB1284685E754480278F5
:101950003046711CCEB204F138010A54FFF787FA01
:1019600008B9FD2078E707F08000C8B1FFF79FFEB7
:1019700005460DB128466FE7494802783046711C8C
:10198000CEB204F138010A544548077807F00F0039
:1019900008B14FF0010AFFF76AFA10B9FD205BE7C2
:1019A00004E008F1010000F0FF0895E700BFBAF17C
:1019B000000F03D009F1010000F0FF094FF000080B
:1019C00016E0FFF754FA08B9FD2045E7FFF76FFE70
:1019D00005460DB128463FE7314802783046711C74
:1019E000CEB204F138010A5408F1010000F0FF08FA
:1019F000C845E6DB94F8840001280CD100202B496F
:101A00000870FFF7B7FD05461DB984F8786000201F
:101A100022E7FE2020E784F8786000201CE70146DA
:101A200064200A11224B53F82220504301F00F0288
:101A3000092A06DD01F00F021E4B53F82220504305
:101A400006E001F00F021C4B53F82220B0FBF2F02D
:101A50004FF4967290FBF2F070472DE9F04F8DB085
:101A600004464FF0000900200B900A900A200590D0
:101A70000020049003900290012694F878000990C9
:101A80003920005D0190019F022511200B4908704B
:101A900064E20000884E1A6818C018682CC01868E4
:101AA00024C018682FC0186822C0186823C018689E
:101AB000E8E9030868EA030828EA030820C0186870
:101AC00007F01000002841D0012E04D0022E0AD0C9
:101AD000032E37D11FE004F13800405DFC49087047
:101AE000681CC5B231E004F13800405D049001206B
:101AF0000B90049800F0100050B194F88400012875
:101B000003D1F6200DB0BDE8F08F1120F049087028
:101B1000681CC5B219E00A9800F00F000F280ED01B
:101B200004F13800405D84F8240094F82400102863
:101B300003DB94F82400FF2801D1F620E2E7681CBB
:101B4000C5B202E0681CC5B200BF00BF07F02000AC
:101B500000287FD0012E04D0022E12D0032E75D182
:101B600018E004F13800405D20B1DA48007808B987
:101B7000F620C7E7039840F002000390681CC5B246
:101B800067E094F88400012801D1F620BAE7681CC8
:101B9000C5B25EE0039840F00800039004F13800FD
:101BA000405D00F0880008B1F620ABE704F1380092
:101BB000405D00F00F00089004F13800405D00F037
:101BC000F00007900798001107900898052802DC9C
:101BD0000798042801DDF62094E70121089801FA0E
:101BE00000FB607AFF2190FBF1F201FB1200401C28
:101BF000584501D3F62085E70BF10B0B0BF1040BD5
:101C000001210798814006910698C0EB00108001E1
:101C1000069006980B300690AD48007800F00F0053
:101C2000AD4951F820104FF47072069802FB010084
:101C30000690A06900FB0BF0E062A069069948439A
:101C4000A062681CC5B204E004E0FFE7681CC5B2EE
:101C500000BF00BF07F0400080B3012E04D0022E69
:101C600010D0032E3BD11FE004F13800405D0C90F2
:101C70000C98FF2801D100200C900C986072681C11
:101C8000C5B22FE00120029004F13800405D0590BC
:101C900094F88400012804D105980A2801D0F62080
:101CA00030E7681CC5B21DE094F88400012806D115
:101CB00004F13800405D10B1F62023E713E004F191
:101CC0003800405D00F0010018B9002133200155B3
:101CD00002E0012133200155681CC5B202E0681CF6
:101CE000C5B200BF00BF07F0800060B3012E09D16C
:101CF00004F13800475D07F00F09B9F1010F1DDD50
:101D0000F620FFE604F13800475D022E16DBB9F13C
:101D1000010F05D107F00F0001280BD0F620F1E6E6
:101D200007F00F00012805D007F00F000E2801D0A2
:101D3000F620E7E604F13800405D0A90701CC6B258
:101D4000681CC5B20AE16348007828B9039800F01E
:101D5000020008B9F620D5E60B98012802D10498B4
:101D600000F00F0984F80690B9F1000F7DD10A98B0
:101D700000F00F0090B14FF00008012606E004F1DA
:101D80003800805D80EA0808701CC6B20998864257
:101D9000F5DBB8F1000F01D01620B3E60B9801284F
:101DA0004BD14B48007818281DD006DC11280BD0E9
:101DB00012280ED0132828D110E0942818D0952886
:101DC0001BD0962821D11CE04FF41650FFF7EBF8FA
:101DD00020E04FF49640FFF7E6F81BE04FF4164082
:101DE000FFF7E1F816E04FF4E130FFF7DCF811E01F
:101DF0004DF6F810FFF7D7F80CE03848FFF7D3F8A6
:101E000008E03748FFF7CFF804E04FF41650FFF72B
:101E1000CAF800BF00BFE07910B9012002F0C1FB91
:101E20002B48007820722A480078FFF7F8FD60619F
:101E30006069A06160694008E061DDF814A0CAEB48
:101E40000A104FEA801A2248007800F00F00224959
:101E500051F820000AFB00FA1D48007800F00F003E
:101E600051F820004FF4F07100E008E001FB00AAF7
:101E700060690AFB00FAC4F80CA0002042E603984F
:101E800000F0080008B9F6203CE64FF000080126F3
:101E900006E004F13800805D80EA0808701CC6B2D4
:101EA00009988642F5DBB8F1000F55D184F8069009
:101EB0000B9801284ED106480078182828D011DC4C
:101EC000112816D0122819D0132833D11BE0000096
:101ED00020C0186821C0186828EA0308F0B3010080
:101EE000E0670300942818D095281BD0962821D1AC
:101EF0001CE04FF41650FFF756F820E04FF49640E0
:101F0000FFF751F81BE04FF41640FFF74CF816E0CE
:101F10004FF4E130FFF747F811E04DF6F810FFF706
:101F200042F80CE0F748FFF73EF808E0F648FFF704
:101F30003AF804E04FF41650FFF735F800BF00BF41
:101F4000F2480078FFF76BFD60616069A06160692D
:101F50004008E0610020D5E51620D3E5B0E510B5D6
:101F60000446EB480068C1782046FFF745F90A208F
:101F7000FEF796FF00212046FFF7EFF80A20FEF754
:101F80008FFF2046FFF7D8F943F2B060FEF788FFD5
:101F900001212046FFF7E1F8002010BD10B50446EE
:101FA00000212046FFF7D9F843F2B060FEF778FF32
:101FB00001212046FFF7D1F8002010BD70B506467C
:101FC0000D4612E0FFF773FB044644B9D148007890
:101FD000602800D109E0CF480078705506E0C22C97
:101FE00001D0D62070BDD520FCE7EBE700BFFFF79E
:101FF0005EFB044624B9C7480178681C315405E0EB
:10200000C22C01D0D820EDE7D720EBE7A81CC249AD
:1020100008600020E6E72DE9F04706460F464FF03E
:102020000009CA460FB94FF480775BE0FFF73FFB2A
:10203000044614B9B748057806E0C22C02D0ED205A
:10204000BDE8F087EE20FBE7B4480078854219D15F
:10205000C84610E0FFF72BFB044624B9AD480078D2
:1020600006F8080005E0C22C01D0ED20E8E7EE20DC
:10207000E6E708F10108B845ECD339463046FFF7EA
:102080009DFFDDE7A5480078C04385420DD1A148FA
:102090000278484609F101093254B94504D139465C
:1020A0003046FFF78BFFCBE71CE0602D00D119E035
:1020B00005F0F000602803D005F0F00090280FD163
:1020C000944802785046411C01F0FF0A3254BAF19C
:1020D000020F04D10220904908600020B0E701E01F
:1020E000FF20ADE7A2E72DE9F047044600250026D2
:1020F0008A480078C0438A4908708A48007830B915
:1021000094F80480207930B94FF4807803E0A17905
:10211000607901EB00284FF000090AE014F809008B
:10212000FFF714FB051E02D0C620BDE8F08709F1B9
:102130000109B9F1050FF1D34FF0000963E012F086
:10214000E3FCFFF7B4FA054615B97248077805E0D5
:10215000C22D01D0C820E8E7C720E6E76F48007825
:10216000874215D10DE0FFF7A2FA05462DB1C22D29
:1021700001D1C920D9E7CA20D7E766480078A05521
:10218000761C4645EFD341462046FFF717FFCCE7C4
:1021900063480078874216D1FFF789FA05462DB1CA
:1021A000C22D01D1C920C0E7CA20BEE75948027834
:1021B0003046761C2254464504D141462046FFF75E
:1021C000FDFEB2E71FE0602F00D11CE02770FFF793
:1021D0006EFA05461DB94F480078607005E0C22DC3
:1021E00001D0C820A1E7C7209FE702204A49086024
:1021F0002078622802D02078632802D101204A4941
:102200000870002091E79AE72DE9F05F05460C463B
:102210004FF0000905274FF0000B4FF0000A41482E
:10222000007801281CD1A179607901EB0020801D84
:10223000A84205D1681E14F800B04FF0010A21E051
:10224000A179607901EB00200830A8421AD1681EFC
:10225000215CA81E205C01EB002B4FF0010A11E06D
:102260002079801DA84201D16D1E0BE02079083035
:10227000A84207D1681E215CA81E205C01EB002B40
:102280004FF0010A25480078C04325490870002610
:1022900009E0A05DFFF75AFAB0F1000902D0C620AC
:1022A000BDE8F09F761C042EF3D3A05DFFF792FAF1
:1022B000B0F1000901D0C620F2E79CE012F024FC46
:1022C000FFF7F5F98146B9F1000F03D1114890F8F5
:1022D000008006E0B9F1C20F01D0C820E0E7C720B6
:1022E000DEE70E480078804539D10520FEF7F9FD7C
:1022F0003E461CE0A05DFFF729FAB0F1000915D0B9
:10230000D920CDE7F0B30100E067030020C01868D2
:1023100018C0186824C0186828C018681DC018683C
:102320001EC018681FC018682DC01868761C681E6B
:10233000B042DFD8A05DFFF74DFAB0F1000901D03F
:10234000D920ADE7BAF1010F04D159462046FFF775
:1023500062FEA5E700212046FFF730FEA0E7FE4819
:102360000078804528D10520FEF7BBFDFB480068BA
:10237000007A112807D1E05DFFF72CFAB0F10009CF
:1023800009D0DB208CE7E05DFFF7E0F9B0F1000950
:1023900001D0DB2084E77F1CAF420CD1BAF1010FE2
:1023A00004D159462046FFF736FE79E70021204642
:1023B000FFF704FE74E71EE0B8F1600F00D11AE0E9
:1023C00084F80080FFF773F98146B9F1000F03D15B
:1023D000E3480078607006E0B9F1C20F01D0C82070
:1023E0005EE7C7205CE70220DE4908600120DE4985
:1023F0000870002054E761E72DE9F04707460D46D5
:1024000014464FF00008C14600260AE0A05DFFF721
:102410009DF910B1E720BDE8F087A05D80EA0909C9
:10242000761CBE42F2D34846FFF790F908B1E72088
:10243000F1E7FFF73CF98046B8F1000F09D1C84831
:102440000078FF2801D0E820E5E7C5480078207033
:1024500001E0E920DFE7FFF72AF98046B8F1000F35
:1024600003D1BF480078607001E0E920D3E7BC48A1
:10247000007800F03000302801D1042700E0032765
:10248000022612E012F040FBFFF711F98046B8F186
:10249000000F06D0B8F1C20F01D1EA20BBE7EB2054
:1024A000B9E7AF480078A055761C781C8642E9D37E
:1024B0004FF00009002603E0A05D80EA0909761CC0
:1024C000781C8642F8D3B9F1000F01D0EC20A2E7C6
:1024D00094F802A085F808A05046FFF7A0FA6861BA
:1024E0006869801CA86168694008E861607800F04C
:1024F0000F00A871607800F0200098B1607800F0BB
:10250000100028B1E078FF280AD10020E07007E031
:10251000A078FF2802D10020E07001E0A078E070F0
:10252000E0786872781C8F4908600846016880204E
:10253000415100206FE710B502460B4600200021F4
:1025400002E05C5C6040491C9142FAD310BD2DE969
:10255000F047044689460027BA4684484068C9F8CF
:1025600010000220FEF7BDFCFFF7A1F805465DB1A3
:10257000C22D02D1B520BDE8F087B62D02D14FF0B3
:10258000010A01E0B720F6E775480078207074482A
:102590000078474075488068C9F81000FFF787F851
:1025A000051E07D0C22D01D1B420E4E7B62D01D11C
:1025B0004FF0010A6A480078607069480078474027
:1025C000FFF775F8051E07D0C22D01D1B420D2E760
:1025D000B62D01D14FF0010A61480078A070604823
:1025E000007847405E480678361D40F20310864268
:1025F00000D1761E4FF0030814E0FFF758F8051ECF
:1026000007D0C22D01D1B420B5E7B62D01D14FF0CE
:10261000010A5348007804F8080051480078474000
:1026200008F10108B045E8D30FB1B320A3E7BAF130
:10263000000F01D0B2209EE7207808B1E6209AE78B
:10264000607800F0800020B9A078FF283CD1B0204D
:1026500091E7607800F0C00080280AD1A07808B126
:10266000AF2088E7607800F0200020282CD1AE2031
:1026700081E76078C12807D1E078102802DBE07894
:10268000FE2815DDAD2076E76078C22801D1AC20A8
:1026900071E76078E32801D1AB206CE76078E2282D
:1026A00001D1AA2067E76078E02801D1A92062E77C
:1026B000A078012801D0A8205DE7607800F01F0015
:1026C000042801DDA72056E7301D264908600020B8
:1026D00051E72DE9F0410446A5782D1D1E20FEF797
:1026E00000FC681E2146FFF726FF691E6054002685
:1026F00008E0A05DFFF72AF8074617B13846BDE8A5
:10270000F081761CAE42F4D30020F8E72DE9F041C9
:1027100006460C4600273220005D1449087094F8E4
:10272000240048703120005DC870A06A4860E06AEB
:10273000886008468068206100200D4908703120BB
:10274000005D487000200870C1204870012088702A
:102750000846C67004200DE01EC0186818C018682E
:1027600024C0186828C018682DC0186894521A68C8
:10277000104F1A68FFF7DFFEFA49087100BF12F028
:10278000C3F9F848FFF7A5FF0546781CC7B22146F4
:10279000F548FFF7DCFE0546FDB1032F08DB0220FC
:1027A000FEF79FFB6078FEF716FF5B20BDE8F08127
:1027B00094F88400012804D1B42D01D0B52D00D1A6
:1027C000DDE7B42D01D0B52D07D10220FEF789FB3E
:1027D0006078FEF700FF5A20E8E7B22D03D0B32D52
:1027E00001D0B02D00D1CAE705B1C8E7DE48407876
:1027F00000F0E000E02805D1DB48407800F00F0051
:10280000012800D0BBE7D8488078012800D0B6E77F
:10281000D548C078B04210D0D348C078102803DB28
:10282000D148C078FF2807D10220FEF75AFB607814
:10283000FEF7D1FE0220B9E7A1E7252006550020CA
:10284000B4E7CA490A7832210A54C849497880F85D
:102850002410C649CA7831210A54C4498A782521EE
:102860000A54C2494A68826270472521095CBF4AFE
:1028700091703221095C117090F82410517031214F
:10288000095CD170816A5160C16A91602521095C3F
:10289000B74A91703221095C117090F82410517080
:1028A0003121095CD170816A5160C16A91607047C1
:1028B000FEB5044600208DF800008DF801408DF82B
:1028C00002008DF80340002609E01DF80600FEF71F
:1028D0003DFF05460DB12846FEBD701CC6B2042E54
:1028E000F3DB0020F8E72DE9F74FD0B0824614461D
:1028F0000020019000268346D1460021302001555A
:102900003220005D9A49087094F824004870312004
:10291000005DC870A06A4860E06A88603220005D8F
:102920009249087094F8240048703120005DC87006
:10293000A06A4860E06A88600846806820614FF4B9
:1029400096718C4802F05DF84FF49671864802F05B
:1029500058F84FF49671834802F053F84FF496718B
:1029600002A802F04EF8E5E212F0CEF87F48407877
:10297000484504D2202001907C48407802E00020A5
:102980000190484680460020764908707748C07814
:10299000019908437349487081F802805198504466
:1029A000A0EB090142466F48C01C02F011F808F183
:1029B00003026C4902A802F00BF86A4840786C499F
:1029C000C870BBF1020F09DD0220FEF78AFA6078B9
:1029D000FEF701FE362053B0BDE8F08F00266148B7
:1029E000FFF777FE051E07D00220FEF77AFA60781F
:1029F000FEF7F1FD2846EEE700BF12F085F821460C
:102A00005948FFF7A4FD054694F88400012827D112
:102A1000B42D01D0B52D23D13046761C012807DD19
:102A20000220FEF75EFA6078FEF7D5FD3620D2E789
:102A300000204C4908704E48007880F0400010217A
:102A400001EAA00040F082004649487000208870EA
:102A50000846FFF73EFE05460DB12846BBE7CCE72A
:102A6000B42D03D0B52D01D0AC2D07D10220FEF737
:102A700038FA6078FEF7AFFD2846ACE7B22D01D0FA
:102A8000B32D23D13046761C012807DD0220FEF746
:102A900028FA6078FEF79FFD36209CE70020314938
:102AA00008703348007880F04000102101EAA0004F
:102AB00040F081002B494870002088700846FFF7DD
:102AC00008FE05460DB1284685E796E71DB330465A
:102AD000761C012807DD0220FEF703FA6078FEF776
:102AE0007AFD362077E700201E49087020480078DC
:102AF00080F04000102101EAA00040F08200194956
:102B00004870002088700846FFF7E3FD05460DB1C8
:102B1000284660E771E714484078E1282DD1304617
:102B2000761C012807DD0220FEF7DBF96078FEF74E
:102B300052FD36204FE700200A4908700C48007803
:102B400080F04000102101EAA00040F08200054919
:102B50004870002088700846FFF7BBFD05465DB150
:102B6000284638E7104F1A683C501A6894521A6881
:102B7000A0521A6868511A683FE7F8484078F84947
:102B800008700846007800F08000002877D19DF892
:102B9000090000F02000D8B13046761C012807DD7E
:102BA0000220FEF79EF96078FEF715FD362012E749
:102BB000EC49097881F04001102202EAA10141F0BC
:102BC0008200FFF775FEC5B20DB1284603E714E792
:102BD000E348007800F04000E249097801F0400144
:102BE000884240D00026DD488078002810DDDB498F
:102BF0008A7880210959DC4BC818D849C91C01F0D2
:102C0000E7FE80200059D549897801448020015190
:102C1000D3480078D3490870D148007800F02000EC
:102C200020280FD10026097881F04001102202EA05
:102C3000A10141F08000FFF73BFEC5B20DB128466F
:102C4000C9E6DAE680200259C749519801F0C0FE72
:102C5000C348C07880F04000C149C8702046FFF7E3
:102C6000F0FD0020B7E63046761C012808DD022082
:102C7000FEF737F96078FEF7AEFC3620ABE60FE0E2
:102C8000B849097881F04001102202EAA10141F01F
:102C90008200FFF70DFEC5B20DB128469BE6ACE6FB
:102CA000AF48007800F0C00080286FD1AD48C778E9
:102CB00087F0400707F04000A949097801F01001AA
:102CC000B0EB810F64D1A648007800F0EF008028B7
:102CD00005D0A348007800F0F00090282AD19DF894
:102CE000090000F02000202813D19D48C07880F012
:102CF00040009B49C8700846C0789A49C870C145D1
:102D000002D9A9EB080000E0002081464FF0000B3B
:102D10000FE100269349097881F04001102202EA70
:102D2000A10141F08000FFF7C3FDC5B20DB12846F7
:102D300051E662E67EB98B49097881F040011022A4
:102D400002EAA10141F08000FFF7B2FDC5B20DB16A
:102D5000284640E651E68248077807F00F0010B198
:102D600007F0F00700263046761C012807DD022018
:102D7000FEF7B7F86078FEF72EFC36202BE63846D3
:102D8000FFF796FDC5B215B1284624E65DE034E6AE
:102D900007F040007249097801F01001B0EB810F93
:102DA0003ED07048007800F0200020281BD130462B
:102DB000761C022807DD0220FEF793F86078FEF704
:102DC0000AFC362007E66749097881F040011022A5
:102DD00002EAA10141F08000FFF76AFDC5B20DB122
:102DE0002846F8E509E65F4840785D494978884219
:102DF0000CD05B4840785B4948709DF8090000F0B2
:102E000020005749C8700BF1010B92E09DF80B2090
:102E10000DF10B01554801F0DBFD0BF1010B88E0D2
:102E20003046761C012807DD0220FEF75AF860784C
:102E3000FEF7D1FB2846CEE59DF83501FFF738FDBA
:102E4000C5B20DB12846C6E5D7E54548007800F083
:102E5000C000C0286CD14248007800F0200070BB50
:102E60003E48407840F020004049C91E48703B4829
:102E700080788870084682783849C91CC01C01F0E7
:102E8000A7FD3648407800F01F00032808D13449D8
:102E9000A06A48603149C978A06A4843A06210E03E
:102EA0002E48407800F01F00012809D12B48C07837
:102EB00084F824002948C0782949487001E009E0D5
:102EC00000BF00202949C91E08700846FFF701FC11
:102ED000002692E52548C01E407800F0E000C0289A
:102EE00026D100261D48407800F01F00012804D19B
:102EF0001A48C0781A49887009E01848407800F0EC
:102F00001F0020B900201649C8704020087080209A
:102F100002591549519801F05BFD1148C07880F0C5
:102F200040000F49C8702046FFF78BFC002052E597
:102F300063E500BFB9F1000F7FF416AD01204AE54B
:102F400010B50446A01E052826D2DFE800F00315C0
:102F5000191D21000648074908601EE03C501A6808
:102F600094521A68A0521A6868511A68134F1A6866
:102F7000684C1A6818C01868F648F74908600CE0F1
:102F8000F648F549086008E0F548F349086004E0B0
:102F9000F448F149086000E000BF00BFEE48006857
:102FA00001F02FFAEC48006810BD2DE9F04780468B
:102FB0000C4615460027B946E748006890F884009B
:102FC000012806D12879801D2168884201D14FF05F
:102FD00004094046FEF760F826684046FFF7B0FF58
:102FE000DD4908600846006810B91020BDE8F08788
:102FF000D9490968087AFEF711F8D748006890F8AF
:103000000180D54800684079012801D00320EDE710
:10301000D1480068807918B90020D349087002E0CF
:103020000120D14908700020D04908702878D04983
:1030300008706878CF490870CD480078FF280DD116
:1030400011F062FD701E2A46C3490968FFF7D4F9E2
:103050000746C948006820603846C7E7BE48006890
:103060008079C0BB2879B0BB052E03D10020BF49B1
:10307000087031E0072E12D10120BC4908702846A3
:10308000FFF731F8074647B9BB480168B248006806
:10309000C0F88010B848006820603846A6E7A979D3
:1030A000687901EB0020B04216D211F02DFD01200D
:1030B000AE49087029463046FFF7A6F8074647B9DB
:1030C000AD480168A4480068C0F88010AA480068AC
:1030D000206038468AE7FFE70020A44908709E4830
:1030E0000068807980BB052E11D111F00DFD2846B6
:1030F000FEF7F9FF074647B99F4801689648006800
:10310000C0F880109C480068206038466EE7052EA5
:1031100018D911F0F9FC29463046FFF775F8074633
:10312000B9F1040F02D001209449087047B99248C0
:10313000016889480068C0F880108F4800682060E6
:10314000384653E7212051E7FFE711F0DDFC00216D
:1031500081480068C0F880107F48294602683046E0
:10316000FFF7C1FB074687B97B480068D0F88000AD
:10317000206000218048016077480068C167764878
:103180000068C0F88010002030E738462EE72DE9AF
:10319000F04FD1B081460D469246002000904C463B
:1031A0008046DAF8000002909AF804008DF80C00CE
:1031B000B2E02868801E205C612826D12746286856
:1031C0002044841E2868401E385C20710020207036
:1031D000C02060700020A070E0702068029020790C
:1031E0008DF80C0005202860224629460020FFF7B4
:1031F000DCFE06461EB1304651B0BDE8F08F28789F
:10320000801E404400F0FF0886E02868801E205C95
:103210006C2815D12868401E205C8DF80C0002989F
:1032200020609DF80C002071052028602246294668
:103230000020FFF7BAFE06460EB13046DCE76BE031
:103240002868022851D1207863280DD02078622880
:103250000AD0207800F09000902846D1207890285D
:1032600002D16078002840D04448007800283CD142
:103270000520059042A106A8059A01F0A9FB06AA1F
:1032800005A90020FFF791FE06460EB13046B3E7D0
:10329000059802281BD19DF818006C2803D09DF8D2
:1032A0001800612813D10598401E06A9085C8DF806
:1032B0001C0033A0006806900520059006AA05A909
:1032C0000020FFF772FE06460EB1304694E72868EC
:1032D000801E205C01902868401E14F800B0012078
:1032E000009000202549087017E02868801E205CA7
:1032F00000F0F00090280BD02868801E205C00F0C1
:10330000F000602804D00020FEF765F9FA2073E78A
:1033100000201A49087000E04BE700BF0098012820
:1033200010D106A92046059A01F052FB05982860A5
:1033300001982968891E60542868401E04F800B06E
:1033400000200090B8F1000F02D008F102002860C0
:10335000002051E7F04C1A6818C01868784D1A68B8
:10336000004E1A68884E1A682CC018681FC018686A
:103370001CC018681DC0186828C018682DC01868BF
:1033800000C00000000000002DE9FE4380460D460D
:10339000144601F04CF8F748006880F80180A8F165
:1033A0000200052823D2DFE800F0030A10161C00F3
:1033B000F1484079032801D1BDE8FE8319E0EF48C8
:1033C0004079032800D1F7E713E0ED48407903285E
:1033D00000D1F1E70DE0EB484079032800D1EBE79D
:1033E00007E0E9484079032800D1E5E701E0102033
:1033F000E2E700BFDF4909684878FDF7B2FF08B18E
:103400008620D9E72068009020798DF8040072B6F4
:10341000224629464046FFF7C8FD0746D5480068C2
:1034200090F88400012813D12868042803D10020D3
:103430002071052028602068009020798DF8040014
:103440000FBB6A4629462046FFF7A1FE074633E038
:10345000CFB92E68B01E205C612815D10A20FDF777
:1034600025FD05202860701E205C20710020207042
:10347000C02060700020A070E070224629464046BF
:10348000FFF793FD074617E0B01E205C6C2813D1B0
:103490000A20FDF70BFD05202860701E205C8DF8CA
:1034A0000400009820609DF80400207122462946FF
:1034B0004046FFF77AFD074662B638467CE770B5AE
:1034C00006460C4600F0B3FF0020B0490870B01E5D
:1034D000052818D2DFE800F003070B0F1300A648F9
:1034E000A449086011E0A548A24908600DE0A4487D
:1034F000A049086009E0A3489E49086005E0A24889
:103500009C49086001E0102070BD00BF9948006828
:103510000078AA2801D01020F6E7402195480068DD
:10352000383001F06EFA00219248006880F8781077
:10353000904909684878FDF714FF08B18620E3E751
:103540008C4909684878FEF729FD08B11720DBE7A8
:1035500001208F49087087480068FEF771F9054619
:1035600000208C4908708C49087035B18149096880
:103570004878FEF730F82846C6E77E480068FEF730
:103580006CFA30B17B4909684878FEF724F81620B8
:10359000BAE778480068807918B900207B4908703C
:1035A00002E00120794908700120724909684871D8
:1035B0007048006890F878206E4801683831601CC7
:1035C00001F006FA6B48006890F87800207000203F
:1035D0009AE770B506460C463046FFF7B1FC054643
:1035E0000DB9002070BD6348006880F8844028460B
:1035F000F8E72DE9F04781460F4690461E46002029
:1036000062490870FDF724FC00F011FF4846FDF701
:1036100043FD72B600214846FFF7DBFF55490860BD
:103620000846006810B91020BDE8F087082F33D293
:10363000DFE807F0040A101C2716222D4FF416505D
:10364000FDF7ABFC11252DE04FF49640FDF7A5FCEE
:10365000122527E04FF41640FDF79FFC132521E0CB
:103660004DF6F810FDF799FC94251BE04FF46140EE
:10367000FDF793FC232515E04848FDF78EFC9525C2
:1036800010E04FF4E130FDF788FC18250AE04448CB
:10369000FDF783FC962505E04FF41650FDF783FCFB
:1036A000112500BF00BFB8F1000F06D0B8F1010F1F
:1036B00008D0B8F1020F0FD109E000202D490968A8
:1036C000C8700EE001202B490968C87009E002208B
:1036D00028490968C87004E0002026490968C870B4
:1036E00000BF00BF4846FDF760FE044614B162B655
:1036F000204699E71F48006805722846FEF78FF9B3
:103700001C49096848611B480068406942F26071C1
:10371000484318490968C860164800684069154957
:1037200009688861134800684069400811490968C0
:10373000C8611048006840694FF4255148430D495D
:10374000096888620B480068406900EB800101EB62
:10375000C00108480068C1620648006800F051FED8
:10376000044909684878FDF7FCFD0446D4B162B607
:10377000862059E718C01868684C1A68F04C1A6817
:10378000784D1A68004E1A68884E1A682CC018685E
:1037900021C0186822C0186823C01868F0B301005F
:1037A000E0670300504909684878FEF7D8FB0446F3
:1037B0003CB14D4909684878FDF70DFF62B6182005
:1037C00032E700204949087047480068FEF738F89A
:1037D000044600204649087046490870FE2C0DD169
:1037E00031464846FFF76BFE04468CB33E490968F4
:1037F0004878FDF7F0FE62B6204615E73CB13A493D
:1038000009684878FDF7E7FE62B620460CE73648BF
:103810000068FEF722F90446162C07D132490968E0
:103820004878FDF7D8FE62B62046FDE684B10A204E
:10383000FDF73CFB31464846FFF741FE04463CB1EC
:10384000294909684878FDF7C6FE62B62046EBE6CE
:10385000FFE725480068807918B9002026490870DC
:1038600002E001202449087001201F4909684871BD
:103870001D48006890F878201B4801683831701C9A
:1038800001F0A6F81848006890F878003070002120
:103890001548006880F831101348006800F0B1FD49
:1038A000114800688079012813D140210E48006832
:1038B00080F832100C480168FE20FEF727FF04460E
:1038C0003CB131464846FFF7FAFD044662B6204651
:1038D000AAE662B60020A7E610B50446222207A198
:1038E000204601F075F810BD18C0186821C018688E
:1038F00022C0186823C018682CC018685031382EB0
:10390000436F6E746163742E303130322E44433411
:103910002E53564E3639392E313731303130000082
:1039200070471CB5012180200EF096F98020009090
:1039300001208DF8040000208DF806008DF80700A6
:1039400002208DF805006946554806F0D3FA01219A
:1039500040200EF081F9802000906946514806F021
:10396000C9FA012102200EF077F901200090694682
:103970004D4806F0BFFA012108460EF06DF9082007
:1039800000906946494806F0B5FA012180200EF002
:1039900063F94FF48060009001208DF8040000204E
:1039A0008DF8060001208DF8070000208DF8050035
:1039B00069463B4806F09EFA012180200EF04CF942
:1039C00001208DF804000420009000208DF80600EE
:1039D00001208DF8070000208DF805006946304869
:1039E00006F088FA012104200EF036F94FF4005059
:1039F000009001208DF8040000208DF806000120C1
:103A00008DF8070000208DF805006946284806F06B
:103A100071FA012120200EF01FF901208DF8040019
:103A20000002009000208DF8060001208DF80700AC
:103A300000208DF8050069461E4806F05BFA01215A
:103A400008020EF009F91020009001208DF8040002
:103A500000208DF8060001208DF8070000208DF869
:103A600005006946144806F045FA012108020EF0E7
:103A7000F3F82020009069460F4806F03BFA012138
:103A800008020EF0E9F84020009069460A4806F066
:103A900031FA00F04DFA0120FFF742FF1CBD000093
:103AA000001C0240001802400004024000000240D6
:103AB00000080240001402400020024010B50446F5
:103AC0001D22F9A1204600F083FF10BD704710B5FC
:103AD00004462146032010F0AFFA10BD10B504468D
:103AE00000F03FFF4FF4E130FFF7F1FF10BD10B5DC
:103AF0004FF48071F44806F071FA642014F03CF839
:103B00004FF48071F04806F06BFA642014F034F83A
:103B10004FF4E131032010F08FFA10BD70B5044668
:103B20000D462A462146032019F0B0FC70BD2DE950
:103B3000F04104460E46154611F094F980462B4696
:103B400022463146032010F04FFB07463846BDE8B9
:103B5000F0812DE9F043ADF66C0D06460C46174694
:103B60004FF000090020CDF8040801A8DDF8041882
:103B70000844D6A109680160DDF80408001DCDF8ED
:103B80000408200A01A9DDF804288854DDF8040897
:103B9000401CCDF80408DDF804288C54DDF8040836
:103BA000401CCDF8040801A8DDF804184654DDF8DF
:103BB0000408401CCDF8040801A8DDF80418FFF73C
:103BC000ADFF40F6B8320DF60801081FFFF7AFFF52
:103BD00020B101200DF66C0DBDE8F0830222BDA1DD
:103BE0000DF6080000F031FFC5B20DB10220F1E77B
:103BF0000322B9A10DF60B0000F027FFC5B20DB1ED
:103C00000320E7E79DF80E989DF8118842460DF6CF
:103C10001201384600F0DCFEB9F1000F01D004209B
:103C2000D8E70020D6E7F0B5ADF66C0D04460D469A
:103C3000164664210DF6080000F0E3FE0020CDF8E2
:103C4000040801A8DDF804180844A4A10A88028029
:103C500089788170DDF80408C01CCDF80408E01CE8
:103C600001A9DDF804288854DDF80408401CCDF8CB
:103C70000408280ADDF804288854DDF80408401CEC
:103C8000CDF80408DDF804288D54DDF80408401C44
:103C9000CDF8040801A8DDF804184454DDF8040840
:103CA000401CCDF80408DDF804082044B0F5006F8E
:103CB00003D905200DF66C0DF0BD01A9DDF804282F
:103CC00088182246314600F083FEDDF804082044BF
:103CD000CDF8040801A8DDF80418FFF71FFF40F62F
:103CE000B8320DF60801081FFFF721FF08B10620C2
:103CF000E0E706227AA10DF6080000F0A6FEC7B2A2
:103D00000FB10720D6E79DF80E08D3E710B504469B
:103D100054B94021744806F063F90A2013F02CFFCF
:103D2000FFF7E5FE002010BD012C0AD140216E48AE
:103D300006F054F90A2013F01FFFFFF7D8FE002009
:103D4000F1E70120EFE770B505460E4655B932465A
:103D500021210120FFF7FDFE04460CB1022070BDB9
:103D60000020FCE7012D0CD1324621210120FFF774
:103D70005AFF04460CB10220F1E7FFF7B8FE00201D
:103D8000EDE70120EBE7F0B599B006460F46642158
:103D9000684600F036FEB6B96A4600210620FFF7F5
:103DA000D8FE054615B1022019B0F0BD002406E08A
:103DB000C4F105001DF800003855601CC4B2062C83
:103DC000F6DB0020F0E7012E15D1002406E0385D77
:103DD000C4F105010DF80100601CC4B2062CF6DB2D
:103DE0006A4600210620FFF71EFF05460DB102209E
:103DF000DAE70020D8E70120D6E770B505460E4681
:103E000055B932464B210420FFF7A3FE04460CB1FE
:103E1000022070BD0020FCE7012D0AD132464B2163
:103E20000420FFF700FF04460CB10220F1E7002058
:103E3000EFE70120EDE770B59AB005460E46642124
:103E400001A800F0DEFD4DB932460B211020FFF72E
:103E500080FE044634B320461AB070BD012D45D112
:103E600032460B211020FFF7DEFE044601AA0B218B
:103E70001020FFF76EFE1022314601A800F0E5FD8C
:103E800028B132460B211020FFF7CDFE04460CB1BD
:103E90002046E1E7324640F2A1311020FFF7C3FE91
:103EA0000020D9E724E000005031382E42542E3053
:103EB0003130322E4443342E53564E3237342E3165
:103EC0003730363330000000000002400129FC0387
:103ED00000000000040E00000129FC000127FC0086
:103EE000040E040127FC0000001802400820B3E77C
:103EF00000BFB1E770B504460D462A4621460320AF
:103F000019F0C4FA70BD70B504460D461646334626
:103F10002A462146032010F067F970BD0349087056
:103F2000704710B5032004F015F910BD30C01868B3
:103F300010B5012108460DF0AFFE4FF0804016F09D
:103F400039FD10BD3EB5044600214FF0804016F00B
:103F500025FD4FF6E850844205D2601E01905320A3
:103F6000ADF8000016E0EC48844209D26420B4FBAE
:103F7000F0F0401E019042F2CF00ADF8000009E0E1
:103F80004FF4FA70B4FBF0F0401E01904AF20F407B
:103F9000ADF800000020ADF80800ADF80200694659
:103FA0004FF0804016F0EAFD0121880716F0F0FC82
:103FB00001221146900716F0D6FD00214FF08040F7
:103FC00016F0DAFD0121880716F0E8FC00BF012198
:103FD000880716F0B7FD0028F9D00121880716F0F0
:103FE000DAFC00214FF0804016F0D8FC3EBD3EB513
:103FF000044604EB84000121C1EB4000019042F231
:10400000CF00ADF800000020ADF80800ADF80200C8
:1040100069464FF0804016F0B1FD0121880716F087
:10402000B7FC01221146900716F09DFD00214FF0CC
:10403000804016F0A1FD0121880716F0AFFC00BFFB
:104040000121880716F07EFD0028F9D0012188079C
:1040500016F0A1FC00214FF0804016F09FFC3EBD01
:1040600070B50446002504E04FF47A70FFF7BFFFF7
:104070006D1CA542F8D370BD3EB504464FF6E8501E
:10408000844205D2601E01905320ADF8000016E076
:10409000A148844209D26420B4FBF0F0401E019094
:1040A00042F2CF00ADF8000009E04FF4FA70B4FB23
:1040B000F0F0401E01904AF20F40ADF800000020E1
:1040C000ADF80800ADF8020069464FF0804016F0E8
:1040D00055FD0121880716F05BFC0122114690076F
:1040E00016F041FD00214FF0804016F045FD3EBD29
:1040F00010B50121880716F051FC10BD10B5002144
:104100004FF0804016F04AFC10BD10B50121880721
:1041100016F018FD50B10121880716F03CFC002173
:104120004FF0804016F03AFC002010BD0120FCE763
:1041300010B5012102200DF0AFFD784816F03AFCD1
:1041400010BD3EB504460021744816F027FC4FF61A
:10415000E850844205D2601E01905320ADF8000063
:1041600016E06D48844209D26420B4FBF0F0401E92
:10417000019042F2CF00ADF8000009E04FF4FA7070
:10418000B4FBF0F0401E01904AF20F40ADF8000081
:104190000020ADF80800ADF8020069465F4816F04F
:1041A000EDFC01215D4816F0F3FB012211465B484E
:1041B00016F0D9FC0021594816F0DEFC01215748C1
:1041C00016F0ECFB00BF0121544816F0BBFC0028A0
:1041D000F9D00121514816F0DEFB00214F4816F0BE
:1041E000DDFB3EBD3EB5044604EB84000121C1EB7E
:1041F0004000019042F2CF00ADF800000020ADF881
:104200000800ADF802006946444816F0B7FC0121E9
:10421000424816F0BDFB01221146404816F0A3FCAF
:1042200000213E4816F0A8FC01213C4816F0B6FBE0
:1042300000BF0121394816F085FC0028F9D0012182
:10424000364816F0A8FB0021344816F0A7FB3EBD07
:1042500070B50446002504E04FF47A70FFF7C2FF02
:104260006D1CA542F8D370BD3EB504464FF6E8502C
:10427000844205D2601E01905320ADF8000016E084
:104280002548844209D26420B4FBF0F0401E01901E
:1042900042F2CF00ADF8000009E04FF4FA70B4FB31
:1042A000F0F0401E01904AF20F40ADF800000020EF
:1042B000ADF80800ADF802006946184816F05EFC3B
:1042C0000121164816F064FB01221146134816F02E
:1042D0004AFC0021114816F04FFC3EBD10B50121EB
:1042E0000E4816F05BFB10BD10B500210B4816F010
:1042F00055FB10BD10B50121084816F023FC48B14C
:104300000121064816F047FB0021044816F046FB41
:10431000002010BD0120FCE7A02E63000004004037
:10432000B8B91849184A11601849194A1160012191
:10433000184A11604904184A11600221174A117085
:104340000421174A1180174A11701021164A118052
:1043500016E00C490C4A11600C490D4A116001210C
:104360000C4A116049040C4A116002210B4A117079
:1043700004210B4A11800B4A117010210A4A118046
:1043800070470000004400402C22196800000240E1
:1043900030221968342219683822196840221968B5
:1043A0003C221968412219683E2219680246002100
:1043B0000BE0F74850F82100904204D1F44B481C20
:1043C00053F820007047881CC1B24829F1D3F04847
:1043D0004068F7E710B50020EE49C8708870087093
:1043E000487011200871FFF7E1FF4F21C1EB500029
:1043F000E849C8601120FFF7D9FF4F38E5498860C8
:1044000010BD10B50446A079E2494870207A0871C1
:10441000207AFFF7CBFF4F21C1EB5000DD49C86088
:10442000207AFFF7C3FF4F38DA49886010BD0EB518
:10443000012104200DF030FCD74816F0BBFA002112
:10444000D54816F0ABFA4FF6FE7001900020ADF89B
:104450000000ADF80800ADF802006946CE4816F03D
:104460008DFB00220121CC4816F07DFB0121CA48BA
:1044700016F094FA0EBD70470020C7492431086039
:1044800000BFC54824300068C24989688842F8D313
:104490007047FFF7CCFFFFF79DFFBE48C2688168F9
:1044A000BEA019F093FB0BE000210220FCF755FEA3
:1044B000FFF7E2FF01210220FCF74FFEFFF7DCFFD0
:1044C000F2E710B504462CB10421B948006805F0A4
:1044D00087FD04E00421B648006805F07FFD10BDAB
:1044E0001CB50121B34800680DF0B6FBB248006866
:1044F000102803D0B0480068202805D10121AE481B
:1045000000680DF0E9FB04E00121AB4800680DF004
:10451000C3FB0722A9480178A548006805F032FDD1
:10452000A7480088009001208DF804008DF806004F
:1045300000208DF8070002208DF8050069469C4890
:10454000006805F0D7FC0120FFF7BBFF02208DF8C3
:1045500004009C480088009002208DF8050000208F
:104560008DF8060001208DF8070069469048006824
:1045700005F0C0FCFFF72EFF1CBD1CB54FF400601A
:10458000ADF800000020ADF80200ADF804004FF4D3
:104590008070ADF8060069468B48006816F07DFF14
:1045A0001CBD7C4908707047704770477047704762
:1045B00001207849887070470020764988707047DC
:1045C0007047704710B5044624B10421784800684C
:1045D00005F006FD10BD10B50446FFF781FF7A48CF
:1045E00000687A49884205D006217748006817F0AC
:1045F00007F904E00C217448006817F001F9FFF78F
:10460000BCFF01217048006817F002F9002240F257
:1046100025516D48006816F0F6FF0120FFF7D2FF24
:10462000002010BD62480068006900F00400704777
:10463000002059492431086000BF574824300068E1
:104640005449C9688842F8D3704710B50120FFF774
:10465000B9FF10BD00204F49C870704701204D4977
:10466000C870704770B5044600250020FFF729FF89
:10467000FFF702FF002610E004F0010028B101203E
:10468000FFF71FFF85F0010502E00020FFF719FF8B
:104690006410FFF7F1FE701CC6B2082EECDB3D483B
:1046A0000078684018B10120FFF70BFF02E00020FE
:1046B000FFF707FFFFF7E0FE0120FFF702FFFFF71C
:1046C000DBFE34484078B8B9FFF7ACFF40B1314861
:1046D000C07810B1FFF7ACFF10E0FFF7CDFE0DE0A2
:1046E0000020FFF76FFF0120FFF7EBFEFFF7C4FE8E
:1046F000FFF7C2FE012070BDFFF7BEFE0020FAE703
:104700002DE9F0410746884600240026FFF78AFF7E
:1047100010B10220BDE8F081FFF7AEFEFFF788FF81
:1047200000250CE07610FFF77DFF20B106F1800038
:10473000C6B284F00104FFF79FFE681CC5B2082DC5
:10474000F0DBFFF76FFF08B184F001041148007837
:1047500044403E70FFF790FE0E48807808B9002074
:10476000D8E7A4B1B8F1000F0FD00020FFF72AFF5F
:104770000020FFF7A6FEFFF77FFEFFF759FF01209D
:10478000FFF79FFE0120FFF71DFF0120C2E71FE09A
:10479000C0F50308A0781A68000800406574753AEF
:1047A00025642C68616C666574753A25640D0A0091
:1047B0003022196834221968382219684122196890
:1047C0003C2219683E2219682C2219680010014009
:1047D00000209FE770B505460026FFF73BFF00BFAE
:1047E0002846FFF73FFF04460CB9002070BD304655
:1047F000711C8EB20428F3DB0120F7E770B5054683
:104800000026FFF72BFF00BF2846FFF72BFF0446CB
:104810001CB9FFF71AFF002070BD3046711C8EB224
:104820000428F1DB0120F7E770B505460C46164673
:104830002046FFF7CFFFC0B270BD70B505460C46ED
:1048400016462046FFF7C6FFC0B270BD70B50546DC
:104850000C4616462046FFF7D1FFC0B270BD2DE9C9
:10486000F04180460D46164600240121880716F0C7
:1048700095F83046FFF700FC00BF042C05DA012153
:104880002846FFF73DFF074604E000212846FFF7D2
:1048900037FF0746012F02D1601CC4B203E017B9ED
:1048A0000020BDE8F081FFF730FC08B9C220F8E72E
:1048B0001348007838B1FFF71DFD20B900201049DA
:1048C0000870FD20EDE7042CD7DD0020E9E770B586
:1048D00004460D461646324629462046FFF7BFFFDE
:1048E00070BD0BE000210220FCF737FCFFF7C4FD90
:1048F00001210220FCF731FCFFF7BEFDF2E70000CA
:1049000023C018680EB5012188030DF0E5F94FF4B6
:10491000E0600AF03BFA28208DF8080000208DF8AE
:10492000090001208DF80A008DF80B0002A80AF09A
:10493000F1F94FF4004004F07FFB0F2107200FF046
:10494000B3FC4FF40040009000208DF804001020CC
:104950008DF8050001208DF80600684604F086FBFE
:104960000EBD1CB5012140200DF076F940200090CD
:1049700001208DF8040000208DF806008DF8050058
:104980006946104805F0B6FA012108460DF064F9B1
:104990004FF48070009069460B4805F0ABFA012196
:1049A00080200DF059F94FF40040009000208DF860
:1049B00004008DF807008DF805006946034805F0EE
:1049C00099FA1CBD0018024000000240001C024081
:1049D00040EA01039B0703D009E008C9121F08C081
:1049E000042AFAD203E011F8013B00F8013B521E01
:1049F000F9D27047D2B201E000F8012B491EFBD278
:104A000070470022F6E710B513460A4604461946D9
:104A1000FFF7F0FF204610BD30B505462A460B468D
:104A200012F8010B13F8014B08B1A042F8D01CB1E9
:104A3000002802D06D1CF1E7284630BD421C10F85A
:104A4000011B0029FBD1801A704730B504460020B5
:104A5000034600E05B1C934203D2E05CCD5C401B4C
:104A6000F8D030BD70B50F4D00B92868002412E0B1
:104A70000A4602E09E4203D0521C1378002BF9D163
:104A8000DAB2224305D02BB124B1002100F8011B7A
:104A900004E00446401C0678002EE9D12860204638
:104AA00070BD0000B022196870B5064619F0C4F850
:104AB000046805460A220021304600F0C9FA2C603D
:104AC00070BD2DE9FE4F804681EA0300C00F0C4601
:104AD000009021F0004123F00045B8EB0200A9410D
:104AE00005D24046214690461C460B46024623F01E
:104AF0000040104347D0270DC7F30A00C3F30A5103
:104B00000290401A019040286BDAC3F3130040F47E
:104B1000801B0098924620B10023D2EB030A63EB7E
:104B20000B0B01985946C0F14002504600F010FAB4
:104B300006460D4650465946019A00F028FA10EBF9
:104B400008006141002487EA115284EAE7731A439E
:104B500040D0009A62B3019A012A4FEA075215DC4D
:104B6000001B61EB02014FF0004202EA0752CDE95F
:104B70000042001C41F5801132462B4600F0E6FA57
:104B800003B0BDE8F08F40462146F9E7001B61EB1A
:104B90000201001C41F5801300185B412018A2F5AA
:104BA000001747EB030140EAD570B6196D4111E0DB
:104BB0006D084FEA360645EAC0754FEA0752001BFA
:104BC00061EB0201001C41F5801149084FEA3000F9
:104BD0000019514132462B4603B0BDE8F04F00F0BA
:104BE000A6BA0098012240000023D0EB020263EB3A
:104BF000E073009821464FEAE074B8EB000061EBE7
:104C00000401E9E783F000435BE781F0004158E7E6
:104C10002DE9FE4F81EA030404F0004421F0004135
:104C200000944FF0000B23F0004350EA01045ED0E3
:104C300052EA03045BD0C3F30A54C1F30A552C446F
:104C4000A4F2F3340194A0FB0254C1F3130141F424
:104C50008011C3F3130343F4801301FB024400FBF0
:104C6000034E840A970A44EA815447EA8357A4FB17
:104C7000076802958D0A05FB07854FEA932C04FB14
:104C80000C542705029D4FEA065847EA1637B5EB44
:104C900008056EEB070C870E920E47EA811742EA71
:104CA0008312A7FB0201B6EB0B0164EB00042B0D92
:104CB00043EA0C335E1844EB1C50DA465146E7FBDE
:104CC0000201C5F313044FEA0B3343EA14534FEACE
:104CD0000432019C43EA0603A4F10C040294009CF4
:104CE000CDE900B400F032FA03B0BDE8F08F002047
:104CF0000146F9E72DE9F04D81EA030404F0004B89
:104D000021F0004514464FF0000A23F0004150EA1C
:104D1000050220D054EA01021DD0C5F30A5702460D
:104D2000C5F31303C1F31300C1F30A5640F4801511
:104D300043F48013A7EB0608101BD64608F2FD3893
:104D400073EB050002D308F1010801E092185B4102
:104D5000B8F1000F03DA00200146BDE8F08D002015
:104D60004FF48011064684460EE0171B73EB0507CF
:104D700005D3121B63EB050306434CEA010C4908FB
:104D80004FEA300092185B4150EA0107EDD152EA38
:104D9000030012D082EA040083EA0501084305D02B
:104DA000101BAB4106D20122002306E000224FF087
:104DB000004302E06FF0010253101AEB06004CEBC7
:104DC000085110EB0A0041EB0B01BDE8F04D00F07B
:104DD000AEB90EB5C10F80EAE0700844CA070021E1
:104DE00040F233438DE80E000A460B4600F0AEF960
:104DF00003B000BD70B5C1F30A5201F000450024B4
:104E0000C1F3130140F2FF3341F480119A4201DAF9
:104E1000002070BD40F233439A42A2F2334203DCD9
:104E2000524200F0A4F800E090402C43F1D0404200
:104E300070BDC1F30A5210B5C1F3130140F2FF3344
:104E400041F480119A4201DA002010BD40F2334350
:104E50009A42A2F2334203DC524200F088F810BDBD
:104E6000904010BD00F0004230F000400AD0C10D6B
:104E700001F56071C0F3160042EA0151C208400713
:104E80001143704700200146704701F0004330B4E1
:104E900021F0004150EA010206D00A0DA2F560722D
:104EA000C1F31301002A02DC30BC00207047440F1C
:104EB00044EAC104C100E01830BC00EBC25000F06D
:104EC000FFB830B50B46014600202022012409E03E
:104ED00021FA02F59D4205D303FA02F5491B04FAB3
:104EE00002F52844151EA2F10102F1DC30BD2DE9C6
:104EF000F05F0546002092469B468846064681465E
:104F000040241BE0284641464746224600F02FF841
:104F100053465A46C01A914110D3114618462246AC
:104F200000F016F82D1A67EB01084F4622460120C3
:104F3000002100F00DF817EB00094E41201EA4F1EE
:104F40000104DFDC484631462A464346BDE8F09F6F
:104F5000202A04DB203A00FA02F100207047914039
:104F6000C2F1200320FA03F3194390407047202A2E
:104F700004DB203A21FA02F00021704721FA02F303
:104F8000D040C2F120029140084319467047202AC0
:104F900006DBCB17203A41FA02F043EAE07306E061
:104FA00041FA02F3D040C2F1200291400843194671
:104FB000704700000FB4002300B589B00CA9009120
:104FC0000B996FF00042CB601E4B06931E4B07936C
:104FD0000423CDE901321D4A089202466B460020A7
:104FE00000F09EFA09B05DF814FB70B586B0064675
:104FF0004FF0FF300091CDE90101002015460C462D
:1050000004903246694604A8FFF7D4FF034604988B
:10501000211825B108B10A4600E022462A6000287E
:105020000DD0002B02DD0098884208D0081B0094A8
:10503000CDE901043246694604A8FFF7BBFF06B07C
:1050400070BD000059570208775702080D54020836
:105050002DE9F04791460F4680460446002614F895
:10506000015B2DB100F0CEF90068405DC007F6D1BC
:105070002B2D02D02D2D18D0641E4A4639462046CD
:1050800000F08AFB27B13968A14201D1C7F800803E
:1050900071054FF002040BD54042002803DD18F0E3
:1050A000CBFD0460A007BDE8F08746F48066E4E726
:1050B0000028F8DA18F0C0FD04606FF00040F2E755
:1050C0000029A8BF7047401C490008BF20F001001C
:1050D000704710B4B0FA80FC00FA0CF050EA0104FA
:1050E00004BF10BC704749B1CCF1200421FA04F48C
:1050F00011FA0CF118BF012121430843A3EB0C0165
:10510000CB1D4FEA00614FEA102042BF002010BCC7
:10511000704700EBC35010440029A4BF10BC704777
:10512000401C490008BF20F0010010BC704710B5BA
:10513000141E73F1000408DA401C41F100019218BA
:105140005B411A4301D120F0010010BD2DE9F04D63
:1051500092469B4611B1B1FA81F202E0B0FA80F2B8
:1051600020329046FFF7F4FE04460F4640EA0A005C
:1051700041EA0B0153465A46084313D0114653EAFD
:10518000010019D0C8F140025046FFF7F0FE054675
:105190000E46504659464246FFF7DAFE084305D010
:1051A000012004E020463946BDE8F08D002005438B
:1051B00046EAE0762C4337430A986305E40AA0EBFD
:1051C00008000022FD0A44EA47540A3002D50020B4
:1051D0000146E9E7010510196941DDE908450019B3
:1051E0006941BDE8F04DA2E7C1F30A52C1F31301D2
:1051F00040F2FF3341F480119A4202DA0020014666
:10520000704740F233439A42A2F2334202DC5242E8
:10521000FFF7ADBEFFF79CBE30B5041E71F1000470
:1052200004DB4FF00044404264EB0101141E73F1B3
:10523000000405DB1C464FF00043524263EB0403BD
:10524000994208BF904230BD4FF0010039490860D3
:105250004FF07800384908604FF0CC1037490860AB
:105260004FF0CC3036490860364837490860374837
:10527000374908604FF00000364908604FF00000E1
:10528000354908603548364908604FF0CC3035491B
:1052900008603548354908603548364908604FF0A0
:1052A0000000354908604FF0000034490860344878
:1052B0003449086034483549086035483549086044
:1052C0003548364908604FF00000354908604FF016
:1052D0000000344908602A48334908604FF44060B0
:1052E000324908603248334908603348334908601E
:1052F0004FF00000324908604FF00000314908606B
:1053000041F21500304908603048314908606FF0BB
:105310007040304908603048804730480047FEE719
:10532000FEE7FEE7FEE7FEE7FEE7FEE7FEE7FEE755
:10533000FEE700003838024030380240200C0240BE
:10534000240C02400A0AAAAA000C02400F0FFFFF19
:10535000080C0240040C02400C0C0240CCC00CC0F3
:1053600020100240241002408A82AAAA00100240A3
:10537000CFC3FFFF08100240041002400C1002408F
:10538000CCCCCC00201402400000CCCC2414024031
:10539000AA0A00AA00140240FF0F00FF08140240EE
:1053A000041402400C140240201802402418024049
:1053B000AA0A200000180240FF0F3000081802401F
:1053C000041802400C180240100000A0050720102D
:1053D000140000A00C0100A0BD7B03088901020895
:1053E000064C074D06E0E06840F0010394E8070032
:1053F00098471034AC42F6D3FAF7CAFE44F70308D4
:1054000074F70308004870478CF6030810B504468B
:10541000FFF7F8FF0068005D00F0010010BD00001C
:105420002DE9FF4F087881B09946FF2805D0491C27
:105430002D2804D00024002308E000230BE00124E1
:10544000F9E703EB830300EB4303491C0878FF28CB
:10545000F7D104B15B4200200090147801462D2C56
:1054600001D02B2C04D1521C2D2C12D000240094DE
:1054700000251678FF2E0ED00A24A0FB04C801FBDD
:105480000481002700FB0711521C16EB0C00694138
:10549000EFE70124EBE7994450EA01020ED0002423
:1054A000AA4D2646DFF8A88200F0D3F982468B4643
:1054B000B9F1000009DAC9F100071BE001980021E9
:1054C000C0E9001105B0BDE8F08F074612E0F8070B
:1054D00007D022462B4630464146FFF799FB064649
:1054E000884622462B4610461946FFF791FB044694
:1054F0000D467F10002FEAD1B9F1000F3246434626
:105500005046594602DAFFF7F5FB01E0FFF780FB52
:10551000009A0AB181F00041019AC2E90001D1E785
:105520002DE9FF4F1F468DB0D7E901464FF0FF38F8
:105530002E2045464FF000090B90B9696D1C0E985E
:105540008847396A824688470028F6D1BAF1FF3F7A
:105550000AD024F4D064002E11DDBAF12B0F08D04C
:10556000BAF12D0F0BD102E0404611B0ABE744F485
:105570008064B9696D1C0E9888478246761E69461C
:10558000600501D52D2000E02B208DF8000001F1F1
:10559000010B0DF1200809E0B9696D1C0E988847D0
:1055A00082460F9844F40074761E0560002E02DDDA
:1055B000BAF1300FF0D00B998A453ED144F0800407
:1055C00006E00F99681CA9F1010944F40074086011
:1055D000B9696D1C761E0E98884782463028F0D037
:1055E0002BE00B998A4505D1200603D444F08004B2
:1055F000761E18E0504618F00DFC08B30DF11301AB
:10560000761E44F400748B4508D2AAF130000BF8E2
:10561000010B200607D5A9F1010003E0200602D402
:1056200009F101008146A00502D50F99681C0860A8
:10563000B9696D1C0E9888478246002ED1DC53E074
:10564000002E51DDBAF1650F02D0BAF1450F4BD1F2
:10565000A00549D5B9696D1C24F44074761E0E98D6
:1056600088478246002E0CDD2B2804D0BAF12D0F7E
:1056700007D144F48074B9696D1C0E98884782463E
:10568000761EE00501D52D2100E02B2108F8011B35
:10569000CDF82C8021E00DF12901761E44F4007430
:1056A00088450CD2AAF1300010F0FF0088F8000005
:1056B00002D10B99884509D908F1010806E0E005F7
:1056C00001D5244801E042F20F708146B9696D1C92
:1056D0000E98884782460F980560002E04DD5046DC
:1056E00018F098FB0028D6D1F9690E988847FF205A
:1056F0008BF8000088F800000020069007904B46C9
:105700006A4608A906A8FFF78BFEA00502D46FF031
:1057100001002AE714F0240F0AD0E00714D1DDE9D4
:1057200006123868031D3B600068C0E900120BE0F8
:10573000DDE90601FFF7A9FB0146E00704D138685F
:10574000021D3A600068016028460EE70000244010
:105750000000F03FF1D8FFFF426842B1016811F844
:10576000013B23B1521EC0E90012184670470121C7
:10577000C160881E704742685AB1C368016843B966
:1057800083688B4205D0491E521CC0E900120020DC
:1057900070474FF0FF3070472DE9F05F8246007888
:1057A000002715468B460AF10104B946302801D07E
:1057B0009DB113E014F8010B0127782803D0582875
:1057C00001D045B10AE00DB1102D07D100271025F9
:1057D00014F8010B02E0082500E00A250026B04677
:1057E0000EE005FB080005FB06F1012701EB104662
:1057F0001FFA80F8B6F5803F00D3B94614F8010BC4
:10580000294600F018F80028EBDABBF1000F05D0AC
:105810000FB1641E00E05446CBF80040B9F1000F10
:1058200006D018F009FA02210160C81EBDE8F09FF9
:1058300048EA0640FAE73A2800D2303820F0200241
:10584000412A01D3A2F13700884201D34FF0FF3043
:1058500070470EB540F2334202920022CDE9002299
:105860001346FFF773FC03B000BD70B58C1810F839
:10587000015B15F0070301D110F8013B2A1106D195
:1058800010F8012B03E010F8016B01F8016B5B1EAF
:10589000F9D12B0705D40023521E0DD401F8013B8A
:1058A000FAE710F8013BCB1A921C03E013F8015BF6
:1058B00001F8015B521EF9D5A142D8D3002070BD7A
:1058C0002DE9F0470746894616461D46DDE9088A58
:1058D000002400BF0AE0385D315D884205D016A083
:1058E00018F074F90120BDE8F087641CAC42F2D3D3
:1058F00000240BE019F804006119715C884204D09F
:105900000FA018F063F90220EDE7641C4445F1D3C1
:1059100000240DE060194044385C61194144715C19
:10592000884204D008A018F051F90320DBE7641C7A
:105930005445EFD30020D6E70D0A310D0A000000D0
:105940000D0A320D0A0000000D0A330D0A00000096
:105950002DE9F04FDDB00024002528213FA8FFF7F6
:1059600050F8342132A8FFF74CF8342125A8FFF76E
:1059700048F8FF26342118A8FFF743F80027A0466F
:105980000FF2F8394FF0010A1422FD4913A8FFF76E
:105990001FF841F27C6B00201290342105A8FFF71C
:1059A00030F80020049004A814F0F2FBF02012F06C
:1059B0006DF913A84B4642463946CDE9010BCDF8A7
:1059C00000A018A814F038FB012014F01DFF0120DE
:1059D00017F090FC012017F087FC002014F024FB46
:1059E000002012F04DF914F0F1FAE6480FF034FA05
:1059F000E448C3884288E4A1E64818F0F7F8E14893
:105A0000808807283DD2DFE800F0040C141C242C09
:105A10003400DC4843890289DFA1E34818F0E6F846
:105A200037E0D84843890289E0A1DF4818F0DEF862
:105A30002FE0D44843890289E0A1DB4818F0D6F86A
:105A400027E0D04843890289E0A1D74818F0CEF872
:105A50001FE0CC4843890289E0A1D34818F0C6F87A
:105A600017E0C84843890289E0A1CF4818F0BEF882
:105A70000FE0C44843890289E0A1CB4818F0B6F88A
:105A800007E0C04843890289C3A1C74818F0AEF8AF
:105A900000BF00BF822300220121DCA010F074FBB4
:105AA00040F2DC5012F068F8FAF7CBFB642012F0F9
:105AB00063F809F01BFF06F002F90FF0D3F93F90ED
:105AC000012406E003220821204606F081F8601C2C
:105AD000C4B2052CF6DB002006F000F901210846CF
